:020000040040BA
:10000000F02A402059124000091340000913400013
:1000100009134000091340000913400000000000CC
:100020000000000000000000000000000913400074
:1000300009134000000000000913400009134000AC
:100040000913400009134000091340000913400040
:100050000913400009134000091340000913400030
:100060000913400000000000850C40009D0C40007A
:10007000B50C40000913400009134000091340006B
:10008000CD0C4000E50C400009134000091340006E
:1000900009134000091340000913400009134000F0
:1000A00009134000091340000913400009134000E0
:1000B00009134000091340000913400009134000D0
:1000C00009134000091340000913400009134000C0
:1000D0000000000009134000000000000913400068
:1000E00009134000091340000913400009134000A0
:1000F0000913400009134000091340000913400090
:10010000091340000913400009134000091340007F
:100110000913400000000000000000000000000083
:10012000091340000913400009134000091340005F
:1001300009134000000000000913400009134000AB
:1001400010B5054C237833B9044B13B10448AFF311
:1001500000800123237010BDB8094020000000007A
:1001600084CA40000C4B43B10C480D4910B5AFF3A5
:1001700000800C48036823B910BD0A48036833B9EE
:100180007047094B002BF7D0BDE810401847064BCD
:10019000002BF5D0184700BF0000000084CA4000C3
:1001A000BC09402084CA40000000000080B582B035
:1001B00000AF78607B68072B31D801A252F823F09A
:1001C0001D024000E1014000E9014000F101400052
:1001D000F901400001024000090240001302400002
:1001E0000020114B98471AE001200F4B984716E06A
:1001F00000200E4B984712E010200C4B98470EE061
:1002000020200A4B98470AE03E210020084B9847DF
:1002100005E03E210120064B984700E000BF00BFEB
:100220000837BD4680BD00BFFD0D4000690E40008F
:10023000D90E400080B582B000AF78607B68072B94
:1002400026D801A252F823F0690240006D02400056
:100250006D0240007F0240007F0240007F024000AC
:100260007F0240007F024000012312E00B4B9847C1
:100270000346002B14BF01230023DBB209E0084B27
:1002800098470346002B14BF01230023DBB200E094
:10029000002318460837BD4680BD00BF350E40001C
:1002A000510F400080B483B000AF78607B68072BAB
:1002B00025D801A252F823F0D9024000DF02400005
:1002C000E5024000EB024000EF024000F302400074
:1002D000F7024000FB0240004FF4FA4310E04FF4F5
:1002E00000430DE04FF400430AE0084B08E0084BE0
:1002F00006E0084B04E0074B02E0064B00E0002359
:1003000018460C37BD465DF8047B704700093D0078
:1003100000127A00001BB70080B582B000AF034620
:10032000FB7100BFFB791846054B9847034683F0E5
:100330000103DBB2002BF5D100BF0837BD4680BDFD
:100340003502400080B586B000AFF8607A603B604F
:100350000B46FB727B68002B07D13B68002B04D156
:10036000FB684FF470021A6019E0FB7A18460E4BD6
:10037000984702467B68B2FBF3F37B617B693A687E
:1003800002FB03F37B613B68013B1A04074B1340FC
:100390007A68D2B2134343F47C52FB681A6000BF00
:1003A0001837BD4680BD00BFA50240000000FF0712
:1003B00080B582B000AF786039603B68002B08D10F
:1003C000094B9847094A7B681B6843F000539362C6
:1003D00005E0064A7B681B6843F48033D36100BFA5
:1003E0000837BD4680BD00BF6D0F400000060E40BF
:1003F00080B582B000AF78607B68002B03D1054BDD
:100400009847034602E0044B9847034618460837CE
:10041000BD4680BD890F4000A50F400080B582B069
:1004200000AF0346FB71FB79033B042B08D8FB7933
:100430001846064B9847FB791846054B984700E04D
:1004400000BF00BF0837BD4680BD00BFAD01400002
:100450001903400080B582B000AF786000BF7868B3
:10046000044B98470346002BF9D000231846083761
:10047000BD4680BDF103400080B500AF0620054BAE
:100480009847024613469B0013449A0013441846AB
:1004900080BD00BFA502400080B500AF024B984769
:1004A0000346184680BD00BF7904400090B583B074
:1004B00000AF1348134B98470620134B9847381D3D
:1004C000192301220621114CA0473B1D002118468B
:1004D0000F4B984700200F4B984702200E4B984730
:1004E00000200E4B98470E4B98470E4B98470346FB
:1004F0001846044B984700BF0C37BD4690BD00BF5F
:1005000000A3E111791440001D04400045034000A0
:10051000B103400055044000FD0C4000790D40003F
:10052000111340009904400080B400AFBFF34F8F17
:10053000BFF36F8F094B0022C3F85022074A074BC5
:100540005B6943F400335361BFF34F8FBFF36F8F89
:1005500000BFBD465DF8047B704700BF00ED00E0C2
:1005600080B48BB000AF264BD3F88030FB61FB69C1
:100570005B0BC3F30E037B62FB6903F007030433D9
:10058000BB61FB69DB08C3F309037B617B69BB606B
:10059000BB68B3FA83F37B607B68DBB203F01F03B5
:1005A0003B61BFF34F8F7B693B623A6A3B6902FA5A
:1005B00003F319467A6ABB6902FA03F30B43FB6043
:1005C0000F4AFB68C2F860323B6A5A1E3A62002B3F
:1005D000EBD17B6A5A1E7A62002BE4D1BFF34F8FB6
:1005E000074A074B5B6943F480335361BFF34F8F76
:1005F000BFF36F8F00BF2C37BD465DF8047B70479B
:1006000000ED00E080B582B000AF78607868034B01
:10061000984700BF0837BD4680BD00BFC10F4000EE
:1006200080B500AF0A20084B98470B20064B98472F
:100630000C20054B98471020034B98471120024B84
:10064000984700BF80BD00BF0506400080B489B058
:1006500000AF78607B68FB61FB69BB61BB695A09CD
:10066000FB697B617B6903F01F03012101FA03F33E
:100670003A61FB603B69BB60BA68064B13445B029E
:100680001A46FB68536000BF2437BD465DF8047B03
:10069000704700BF0707200080B48DB000AF7860BE
:1006A00039607B68FB623B68BB62FB6A7B627B6A8A
:1006B0005A09FB6A3B623B6A03F01F03012101FAFE
:1006C00003F3FA61BB61BB6A7B61FB693B613A6919
:1006D000374B13445B02FB607B6903F00803002B7C
:1006E00003D0FB68BA695A6602E0FB68BA691A6609
:1006F0007B6903F01003002B04D0FB68BA69C3F8D0
:10070000942003E0FB68BA69C3F890207B6903F08A
:100710002003002B03D0FB68BA691A6502E0FB686E
:10072000BA695A657B6903F0C003002B03D0FB68EC
:10073000BA691A6202E0FB68BA695A627B6903F01F
:100740008003002B04D0FB68BA69C3F8842003E05F
:10075000FB68BA69C3F880207B6903F00103002BB2
:1007600006D0FB681A6FBB691A43FB681A6706E07C
:10077000FB681A6FBB69DB431A40FB681A677B6929
:1007800003F00203002B06D0FB685A6FBB691A43C3
:10079000FB685A6706E0FB685A6FBB69DB431A4087
:1007A000FB685A6700BF3437BD465DF8047B70476D
:1007B0000707200080B48DB000AF78600B46FB7057
:1007C0007B68FB62FB7887F82B30FB6A7B627B6A75
:1007D0003B623B6A5B09FB61FA69174B13445B029E
:1007E000BB6197F82B30012B09D1FB6A7B617B69D8
:1007F00003F01F0301229A40BB691A610CE097F8CD
:100800002B30002B08D1FB6A3B613B6903F01F03CF
:1008100001229A40BB695A61FB6AFB60FB6803F0E6
:100820001F0301229A40BB69C3F8A02000BF3437E0
:10083000BD465DF8047B70470707200080B48BB08D
:1008400000AF78600B46FB707B687B62FB7887F8B3
:1008500023307B6AFB61FB69BB61BB695B097B6120
:100860007A69104B13445B023B6197F82330002BED
:1008700009D07B6AFB60FB6803F01F0301229A40EA
:100880003B691A6308E07B6ABB60BB6803F01F0327
:1008900001229A403B695A6300BF2C37BD465DF880
:1008A000047B70470707200080B48DB000AF7860EC
:1008B0000B46FB707B68FB62FB7887F82B30FB6A8A
:1008C0007B627B6A5A09FB6A3B623B6A03F01F0347
:1008D000012101FA03F3FA61BB6197F82B30FB7534
:1008E000FB693B613A69234B13445B02FB60FB7D70
:1008F000013B032B2ED801A252F823F0310940000E
:10090000430940000D0940001F094000FB68BA6917
:10091000C3F8C420FB68BA69C3F8D0201FE0FB68A5
:10092000BA69C3F8C420FB68BA69C3F8D42016E0DA
:10093000FB68BA69C3F8C020FB68BA69C3F8D02065
:100940000DE0FB68BA69C3F8C020FB68BA69C3F858
:10095000D42004E0FB68BA69C3F8B42003E0FB6864
:10096000BA69C3F8B02000BF3437BD465DF8047BD8
:10097000704700BF0707200080B400AFBFF34F8F60
:10098000BFF36F8F0C4A0C4BD3F8903223F0010366
:10099000C2F89032084A084BD3F8943223F001038E
:1009A000C2F89432BFF34F8FBFF36F8F00BFBD46C5
:1009B0005DF8047B704700BF00ED00E080B500AF3C
:1009C000254B4FF400425A60244B9847244B9847DC
:1009D000244B254A5A60234B244A5A60244B98479B
:1009E000244B984701214820234B98470121482058
:1009F000224B984700210B201F4B984788210B2042
:100A00001F4B984702210B201E4B984700211520B1
:100A10001B4B984715201C4B98471C4A1B4BD3F87F
:100A2000143143F01003C2F8143103212420144B75
:100A300098472420144B984700210320104B9847D7
:100A40000320114B9847002104200D4B98470420A8
:100A50000D4B984700BF80BD50180E40290540003F
:100A600061054000000C0E400C08005A0C07005AAB
:100A70007909400021064000B50740003D084000CC
:100A800099064000A90840004D064000008008403B
:100A900080B487B000AFF860B9607A60FB687A68AC
:100AA0005A64BB68B3F1C05F4AD0B3F1C05F08D8E5
:100AB000B3F1006F16D0B3F1805F2CD0002B69D05A
:100AC00064E0B3F1205F65D0B3F1205F03D8B3F1E8
:100AD000005F4AD05AE0B3F1405F5BD0B3F1605F92
:100AE00058D053E0FB681B6F7B61FB681A6F7B6813
:100AF000D9437B690B401A40FB681A67FB685B6F40
:100B00007B61FB685A6F7B68D9437B690B401A4055
:100B1000FB685A673AE0FB681B6F7B617A687B6908
:100B20001A43FB681A67FB685B6F7B61FB685A6F4F
:100B30007B68D9437B690B401A40FB685A6725E004
:100B4000FB681B6F7B61FB681A6F7B68D9437B690D
:100B50000B401A40FB681A67FB685B6F7B617A6821
:100B60007B691A43FB685A6710E0FB681B6F7B6167
:100B70007A687B691A43FB681A67FB685B6F7B6165
:100B80007A687B691A43FB685A6700BFFB687A681A
:100B90005A6000E000BF1C37BD465DF8047B70471B
:100BA00080B483B000AF78607B68DB6C18460C378C
:100BB000BD465DF8047B704780B483B000AF7860B9
:100BC0007B689B6C18460C37BD465DF8047B70470C
:100BD00080B584B000AF786039607868264B98475C
:100BE000F8607868254B98470246FB681340FB6025
:100BF000FB68002B3CD00023BB6034E0204ABB687C
:100C00001B0113441A683B689A4226D11C4ABB68F0
:100C10001B01134404331A68FB681340002B1CD0DB
:100C2000174ABB681B0113440C331B681449BA688C
:100C300012010A4410681249BA6812010A440432C7
:100C40001268114698470E4ABB681B0113440433CF
:100C50001B68DB43FA681340FB60BB680133BB6071
:100C6000BB68062B03D8FB68002BC7D100E000BF90
:100C700000BF1037BD4680BDA10B4000B90B40003E
:100C8000D409402080B500AF0A210248024B9847A2
:100C900000BF80BD000E0E40D10B400080B500AFFC
:100CA0000B210248024B984700BF80BD00100E4048
:100CB000D10B400080B500AF0C210248024B984791
:100CC00000BF80BD00120E40D10B400080B500AFC8
:100CD00010210248024B984700BF80BD00140E400F
:100CE000D10B400080B500AF11210248024B98475C
:100CF00000BF80BD00160E40D10B400080B483B011
:100D000000AF78607B68013B032B1AD801A252F830
:100D100023F000BF250D40002B0D4000330D400097
:100D20003B0D400000237B600EE04FF480737B603E
:100D30000AE04FF440737B6006E04FF400737B6081
:100D400002E000237B6000BF0A490A4B1B6B23F4BF
:100D500040727B6813430B6300BF064B9B6E03F02E
:100D60000803002BF9D000BF0C37BD465DF8047BAB
:100D7000704700BF00060E4080B485B000AF7860B9
:100D80001D491D4B1B6B23F070027B6813430B63E3
:100D90004FF48053FB6007E0FB68002B01D1012377
:100DA00023E0FB68013BFB60134B9B6E03F00803E1
:100DB000002BF1D0104A104B1B6B23F0030343F0C0
:100DC000020313634FF48053FB6007E0FB68002BC2
:100DD00001D1012309E0FB68013BFB60064B9B6EE0
:100DE00003F00803002BF1D0002318461437BD464A
:100DF0005DF8047B704700BF00060E4080B483B0EE
:100E000000AF78607B68012B05D10749064B9A68D3
:100E1000064B13438B60044B054A1A6000BF0C3726
:100E2000BD465DF8047B704710180E40000010A509
:100E3000080000A580B400AF094B5B6903F0800394
:100E4000002B07D0074B9B6E03F08003002B01D0D3
:100E5000012300E000231846BD465DF8047B70477F
:100E600010180E4000060E4080B483B000AF7860CA
:100E70001549154B1A6A154B13430B6200BF124BF1
:100E80009B6E03F40033002BF9D00F490E4B1A6A06
:100E90000F4B13407A68134343F45C130B6200BF9B
:100EA000094B9B6E03F40033002BF9D00649064B27
:100EB0001A6A084B134043F45C130B6200BF0C37F3
:100EC000BD465DF8047B704700060E400800370001
:100ED0008FFFC8FFFFFFC8FE80B483B000AF78600B
:100EE00039607B68002B08D01349134B1B6A134AE7
:100EF0001A40134B13430B6218E00F490E4B1A6A4A
:100F0000104B13403A68120292B21A430E4B13432D
:100F10000B6200BF084B9B6E03F00103002BF9D05E
:100F20000549054B1A6A094B13430B6200BF0C3786
:100F3000BD465DF8047B704700060E40FCFFC8FE0E
:100F400002003701FCFFC8FF010037000000370135
:100F500080B400AF044B9B6E03F480331846BD464B
:100F60005DF8047B704700BF00060E4080B400AF00
:100F7000044B4FF000529A6200BFBD465DF8047BFF
:100F8000704700BF00060E4080B400AF044B9B6E5C
:100F900003F002031846BD465DF8047B704700BFAE
:100FA00000060E4080B400AF044B9B6E03F040037C
:100FB0001846BD465DF8047B704700BF00060E4032
:100FC00080B483B000AF78607B683F2B01D90123E8
:100FD0002FE07B681F2B13D8194B9A6901217B687E
:100FE00001FA03F31A4001217B6801FA03F39A42E4
:100FF0001ED0134A01217B6801FA03F3136117E045
:101000007B68203B7B600E4BD3F8082101217B6875
:1010100001FA03F31A4001217B6801FA03F39A42B3
:1010200006D0074A01217B6801FA03F3C2F80031B8
:10103000002318460C37BD465DF8047B704700BF9F
:1010400000060E4080B483B000AF78600B467B8012
:101050007A88074B1B68134343F480227B681A602D
:10106000002318460C37BD465DF8047B704700BF6F
:10107000440A402080B483B000AF78600B46FB7018
:10108000FB78002B0DD0104B1B6843F080730E4A89
:1010900013607B681A680C4B1B681A437B681A60E4
:1010A0000CE0094B1B6823F08073074A13607B68D0
:1010B0001A68054B1B681A437B681A6000BF0C371F
:1010C000BD465DF8047B7047440A402080B485B07B
:1010D00000AF786039607B681B68FB60FA683B682A
:1010E0001343FB60064B1B68FA681343FB607B6885
:1010F000FA681A6000BF1437BD465DF8047B70477C
:10110000440A402080B485B000AF78603960002385
:10111000FB607B681B68FB603B68DB43FA6813403D
:10112000FB60074B1B68FA681343FB607B68FA6837
:101130001A6000BF1437BD465DF8047B704700BFDE
:10114000440A402080B485B000AF78607B689B681B
:10115000FB6002E07B689B68FB607B689A68FB68C9
:101160009A42F7D1FB6818461437BD465DF8047BF8
:101170007047000080B584B000AF786039607B684C
:101180001B6803F48033FB604FF480310D480E4B35
:1011900098473B68002B04D17B684FF0FF325A60C0
:1011A00003E03B685A1E7B685A60FB68002B04D042
:1011B0004FF480310348054B9847002318461037F9
:1011C000BD4680BD30180E4005114000CD104000D6
:1011D00080B483B000AFEFF310837B607B68002B9B
:1011E0000CBF01230023DBB23B6072B6BFF35F8FFD
:1011F000044B00221A703B6818460C37BD465DF858
:10120000047B70470000402080B483B000AF78605A
:101210007B68002B14BF01230023DBB218460C3778
:10122000BD465DF8047B704780B582B000AF786042
:101230007868074B98470346002B05D0054B0122E1
:101240001A70BFF35F8F62B600BF0837BD4680BD1E
:10125000091240000000402080B584B000AF1E4B52
:10126000FB601E4BBB60FA68BB689A420CD007E07B
:10127000BB681A1DBA60FA68111DF96012681A601D
:10128000BB68174A9342F3D3164BBB6004E0BB68BC
:101290001A1DBA6000221A60BB68134A9342F6D343
:1012A000124BFB60124AFB6823F07F039360114BE3
:1012B00098477860104A104B1B6843F47003136022
:1012C000BFF34F8FBFF36F8F78680C4B98470C4B71
:1012D00098470C4B9847FEE784CA40000000402026
:1012E000B8094020B8094020F00A40200000400022
:1012F00000ED00E0D111400088ED00E0291240002F
:101300006D734000053E400080B400AFFEE7000072
:1013100080B400AF524B1B6B03F00303012B14D0BE
:10132000012B02D3022B38D07AE04E4B5B6903F0DD
:101330008003002B04D04C4B4FF400421A606FE046
:10134000494B4FF4FA421A606AE0454B1B6A03F0BE
:101350008073002B03D0444B444A1A6060E0424B38
:10136000434A1A603E4B1B6A03F07003102B04D0F3
:10137000202B08D0002B0ED00EE03B4B1B685B00EF
:10138000394A136008E0384B1A6813465B0013446F
:10139000354A136000E000BF42E0314B1B6A03F0A6
:1013A0008073002B03D0304B304A1A601CE02E4B68
:1013B0002F4A1A602A4B1B6A03F07003102B04D0CB
:1013C000202B08D0002B0ED00EE0274B1B685B00B3
:1013D000254A136008E0244B1A6813465B00134447
:1013E000214A136000E000BF1D4B1B6B03F0030399
:1013F000022B14D11A4B9B6A1B0CC3F30A03013353
:10140000194A126802FB03F3174A1360144B9B6AD4
:10141000DBB2154A1268B2FBF3F3134A136000BF44
:101420000F4B1B6B03F07003702B08D10E4B1B6826
:10143000104AA2FB03235B080B4A13600AE0084B27
:101440001B6B1B0903F00703074A126822FA03F318
:10145000054A136000BFBD465DF8047B704700BFBE
:1014600000060E4010180E4004004020001BB7007C
:1014700000093D00ABAAAAAA80B483B000AF78608F
:101480007B68194A934204D8184B4FF080621A6067
:1014900023E07B68164A934203D8144B154A1A601E
:1014A0001BE07B68144A934203D8104B134A1A601E
:1014B00013E07B68124A934203D80C4B114A1A601E
:1014C0000BE07B68104A934204D8084B4FF004228B
:1014D0001A6002E0054B0D4A1A6000BF0C37BD468A
:1014E0005DF8047B704700BFFF2C3101000C0E40FB
:1014F000FF59620200010004FF869303000200040A
:10150000FFB3C40400030004FFE0F5050005000478
:1015100080B485B000AF7860104BFB60104B1B6847
:10152000002B02D10E4B0F4A1A600D4B1B68BB609B
:10153000BA687B681A44FB689A4202DD4FF0FF33B9
:1015400006E0074B1A687B681344054A1360BB68C2
:1015500018461437BD465DF8047B7047FCFF4520F4
:10156000480A4020F02C402080B483B000AF78605F
:101570004FF0FF3318460C37BD465DF8047B7047CB
:1015800080B483B000AF786039603B684FF400529C
:101590005A60002318460C37BD465DF8047B70473F
:1015A00080B483B000AF7860012318460C37BD4685
:1015B0005DF8047B704780B485B000AFF860B96017
:1015C0007A60002318461437BD465DF8047B7047E7
:1015D00080B586B000AFF860B9607A6000237B61A7
:1015E000FB68002B12D04FF0FF3313E00B4B1B684E
:1015F0000B4A1268B96810469847BB680133BB6054
:101600007B6901337B617B68013B7B607B68002BDE
:10161000ECDC7B6918461837BD4680BD840A402043
:101620008C0A402080B586B000AFF860B9607A605F
:1016300000237B61FB68012B1ED0FB68022B1BD0B3
:10164000FB68032B18D04FF0FF3319E00E4B1A68DC
:101650000E4B1868BB68591CB9601B781946904737
:101660000346002B02DA4FF0FF3309E07B690133B8
:101670007B617B68013B7B607B68002BE6D17B69EB
:1016800018461837BD4680BD880A40208C0A402085
:1016900080B483B000AF78607B6808221A607B68F2
:1016A00020221A607B6804221A6000BF0C37BD46F6
:1016B0005DF8047B7047000080B584B000AF7860AF
:1016C00039600023FB607B684FF0FF329A627B68D1
:1016D0001B6A78680B4B984778680B4B98473B68B8
:1016E00059683B681B681A467868084B9847034658
:1016F000012B01D10123FB60FB6818461037BD4662
:1017000080BD00BF251A400091164000111740000F
:1017100080B489B000AFF860B9607A600023FB61E3
:10172000BB68344A934201D901235DE0BB68324A69
:10173000934237D97B68314AA2FB03239B0B033BBF
:101740007B61BA682E4B13449B007A68B2FBF3F3BB
:10175000033B3B6105E0FB690133FB617B695B088F
:101760007B617B69FF2B09D9FB69062BF3D905E067
:10177000FB690133FB613B695B083B613B69FF2B04
:1017800002D9FB69062BF3D97B69DAB23B691B02EC
:101790009BB21A43FB691B0403F4E0231A43FB6862
:1017A0001A6120E0BB685B007A68B2FBF3F3033B8D
:1017B000BB6105E0FB690133FB61BB695B08BB6191
:1017C000BB69FF2B02D9FB69062BF3D9BB69DAB2DF
:1017D000BB691B029BB21A43FB691B0403F4E023A1
:1017E0001A43FB681A61002318462437BD465DF88A
:1017F000047B7047801A060000DC0500F1197605AD
:101800000012FD3F80B485B000AF786039603B685E
:10181000002B01D100231DE07B681B78FB603B6837
:10182000012B09DDFB681B02FB607B6801331B7821
:101830001A46FB681343FB603B68022B09DDFB681B
:101840001B02FB607B6802331B781A46FB6813435C
:10185000FB60FB6818461437BD465DF8047B704793
:1018600080B586B000AF786039603B68DB687B612B
:101870003B689B683B6143F69823FB607B69002BC8
:1018800001D1012359E07B6800225A603B681B7C30
:101890001B0403F4FE023B685B681B0203F4407305
:1018A000134343F480527B685A607B680022DA60FD
:1018B0003A683B685B6819461046224B98470246D7
:1018C0007B68DA607B6801221A6029E07B681B6A0A
:1018D000BB60BB6803F48073002B01D005232CE0B0
:1018E000FB685A1EFA60002B01D1092325E07B69B1
:1018F000012B02D17B6802221A60BB6803F002034D
:10190000002B00D10CE03B695A1C3A617A68126BDB
:10191000D2B21A707B69013B7B6143F69823FB606E
:101920007B69002BD2D100BF7B681B6A03F00103E7
:10193000002BF9D07B681B6A002318461837BD4678
:1019400080BD00BF0518400080B586B000AF78604C
:1019500039603B68DB687B613B689B683B617B6906
:10196000002B01D1012356E07B6800225A603B68BE
:101970001B7C1B0403F4FE023B685B681B0203F440
:1019800040731A437B685A607B680022DA603A68C9
:101990003B685B6819461046214B984702467B68B6
:1019A000DA6019E07B681B6AFB60FB6803F48073F4
:1019B000002B01D005232EE0FB6803F00403002B6D
:1019C00000D109E03B695A1C3A611B781A467B68D2
:1019D0005A637B69013B7B617B69002BE2D17B68A9
:1019E0001B6AFB60FB6803F48073002B01D00523A6
:1019F00011E0FB6803F00403002B00D1EFE700BF08
:101A00007B6802221A6000BF7B681B6A03F0010337
:101A1000002BF9D0002318461837BD4680BD00BF03
:101A20000518400080B483B000AF78607B688022E6
:101A30001A607B681B6B00BF0C37BD465DF8047BEA
:101A4000704780B485B000AF786039600023FB60D8
:101A50007B68AC221A603B681A683B685B68B2FB23
:101A6000F3F31B09FB60FB68002B03D0FB68B3F5A5
:101A7000803F01D301230AE07B68FA681A623B6861
:101A80009A687B685A607B6850221A600023184667
:101A90001437BD465DF8047B704780B483B000AF57
:101AA00078600B46FB707B685B6903F00203002BD8
:101AB00001D1012303E0FA787B68DA61002318463C
:101AC0000C37BD465DF8047B704780B483B000AF2F
:101AD000786039607B685B6903F00103002B01D1FA
:101AE000012305E07B689B69DAB23B681A7000232A
:101AF00018460C37BD465DF8047B704780B489B04A
:101B000000AFF860B9607A60BB681A017B689A42DE
:101B100002D81023FB6101E00823FB617B68DA0037
:101B2000FB69B96801FB03F35B081A44FB69B968F8
:101B300001FB03F3B2FBF3F3BB61BB69DB087B6121
:101B4000BB6903F007033B617B69002B03D07B6912
:101B5000B3F5803F01D301230FE0FB69082B05D1CA
:101B6000FB685B6843F40022FB685A603B691A0417
:101B70007B691A43FB681A62002318462437BD4666
:101B80005DF8047B7047000080B582B000AF7860DC
:101B900078680D4B98477B6800225A607B6800226A
:101BA0005A627B6800229A627868084B9847786886
:101BB000074B98477868074B98477868064B9847D3
:101BC00000BF0837BD4680BD691D40007B1C40003A
:101BD000AF1C4000C91C4000E51C400080B584B02B
:101BE00000AFF860B9607A60F8681A4B98471A4BF2
:101BF00000221A60BB68002B09D0BB681B687A689A
:101C00001946F868154B98470346002B01D001236D
:101C10001BE0BB685A68BB689B681A43BB681B69BA
:101C20001A43BB68DB681A430B4B1B6813430A4A11
:101C30001360094B1B68084A1360FB685A68064B1F
:101C40001B681A43FB685A60002318461037BD46CC
:101C500080BD00BF891B40004C0A4020FD1A400097
:101C600080B483B000AF78607B6840221A6000BF08
:101C70000C37BD465DF8047B704780B483B000AF7D
:101C800078607B6888221A6000BF0C37BD465DF81B
:101C9000047B704780B483B000AF78607B6810220B
:101CA0001A6000BF0C37BD465DF8047B704780B4F6
:101CB00083B000AF78607B6824221A6000BF0C37C5
:101CC000BD465DF8047B704780B483B000AF786098
:101CD0007B684FF480721A6000BF0C37BD465DF818
:101CE000047B704780B483B000AF78607B684FF4AA
:101CF00000221A6000BF0C37BD465DF8047B7047B8
:101D000080B483B000AF786039607B685B6903F0B2
:101D10000203002B01D1012305E03B68C3F3080255
:101D20007B68DA61002318460C37BD465DF8047BFA
:101D3000704780B483B000AF786039607B685B69BE
:101D400003F00103002B01D1012306E07B689B69AE
:101D5000C3F308023B681A60002318460C37BD46DF
:101D60005DF8047B7047000080B483B000AF7860FA
:101D70007B68044AC3F8E42000BF0C37BD465DF819
:101D8000047B70470041535580B483B000AF87EDAA
:101D9000010AD7ED017A9FED057A67EE877AB0EEFA
:101DA000670A0C37BD465DF8047B704735FA8E3CF8
:101DB00080B485B000AF87ED010A7B68FB60FB68EB
:101DC0005A10104B9B1AFB6097ED037AD7ED017AFE
:101DD000DFED0D6A67EEA66AD7ED037A66EEA76AB5
:101DE000D7ED037A66EEA77ADFED086A76EEE77A3A
:101DF00067EE277AB0EE670A1437BD465DF8047BBC
:101E0000704700BF12141F5F12D3363FFF51D83FF7
:101E100080B485B000AFF0EE406AB0EE607AF0EECC
:101E2000417AC7ED016A87ED027AC7ED037AD7EDF3
:101E3000017AF5EE407AF1EE10FA0FD1D7ED027A81
:101E4000F5EE407AF1EE10FA08D1D7ED037AF5EE0F
:101E5000407AF1EE10FA01D1012300E0002303F0F3
:101E60000103DBB218461437BD465DF8047B7047AA
:101E700090B48CB000AFF861B0EE405AF0EE605A0A
:101E8000B0EE416AF0EE616AB0EE427AF0EE627A4C
:101E900087ED045AC7ED055A87ED066AC7ED016A5A
:101EA00087ED027AC7ED037A97ED047AD7ED017AD0
:101EB00077EE277AC7ED097A97ED057AD7ED027AA2
:101EC00077EE277AC7ED0A7A97ED067AD7ED037A8F
:101ED00077EE277AC7ED0B7AFB691C4607F12403DE
:101EE00093E8070084E80700F8693037BD4690BCE6
:101EF000704780B485B000AFF0EE406AB0EE607A13
:101F0000F0EE417AC7ED016A87ED027AC7ED037AF8
:101F100097ED017AD7ED027A37EE277AD7ED037A7B
:101F200077EE277AB0EE670A1437BD465DF8047B7A
:101F3000704790B48AB000AF7861F0EE406AB0EEBE
:101F4000607AF0EE417AC7ED011AC7ED026A87EDBB
:101F5000037AC7ED047A97ED027AD7ED017A67EE3E
:101F6000277AC7ED077A97ED037AD7ED017A67EE06
:101F7000277AC7ED087A97ED047AD7ED017A67EEF4
:101F8000277AC7ED097A7B691C4607F11C0393E8A1
:101F9000070084E8070078692837BD4690BC704781
:101FA00090B48CB000AFF861B0EE405AF0EE605AD9
:101FB000B0EE416AF0EE616AB0EE427AF0EE627A1B
:101FC00087ED045AC7ED055A87ED066AC7ED016A29
:101FD00087ED027AC7ED037A97ED047AD7ED017A9F
:101FE00067EE277AC7ED097A97ED057AD7ED027A81
:101FF00067EE277AC7ED0A7A97ED067AD7ED037A6E
:1020000067EE277AC7ED0B7AFB691C4607F12403BC
:1020100093E8070084E80700F8693037BD4690BCB4
:10202000704790B48CB000AFF861B0EE405AF0EE5B
:10203000605AB0EE416AF0EE616AB0EE427AF0EEBC
:10204000627A87ED045AC7ED055A87ED066AC7ED37
:10205000016A87ED027AC7ED037A97ED057AD7ED2D
:10206000037A27EE277AD7ED066AD7ED027A66EE75
:10207000A77A77EE677AC7ED097A97ED067AD7EDFA
:10208000017A27EE277AD7ED046AD7ED037A66EE58
:10209000A77A77EE677AC7ED0A7A97ED047AD7EDDB
:1020A000027A27EE277AD7ED056AD7ED017A66EE38
:1020B000A77A77EE677AC7ED0B7AFB691C4607F1C2
:1020C000240393E8070084E80700F8693037BD4629
:1020D00090BC704780B588B000AFF0EE406AB0EEBB
:1020E000607AF0EE417AC7ED016A87ED027AC7EDBA
:1020F000037A07F1140397ED015AD7ED025A97EDD1
:10210000036AD7ED016A97ED027AD7ED037AF0EE14
:10211000451AB0EE652AF0EE462AB0EE660AF0EEF9
:10212000470AB0EE671A18460B4B9847D7ED056A79
:1021300097ED067AD7ED077AB0EE660AF0EE470A19
:10214000B0EE671A054B9847F0EE407AB0EE670A9A
:102150002037BD4680BD00BFA11F4000F31E4000D8
:1021600080B586B000AFF860F0EE406AB0EE607AFD
:10217000F0EE417AC7ED006A87ED017AC7ED027A89
:10218000D7ED006A97ED017AD7ED027AB0EE660AD4
:10219000F0EE470AB0EE671A0F4B9847F0EE407A20
:1021A000B0EE670A0D4B984787ED050AFB68D7ED3F
:1021B000006A97ED017AD7ED027AD7ED051AB0EEF5
:1021C000660AF0EE470AB0EE671A1846044B9847C5
:1021D000F8681837BD4680BDD5204000B11D4000CD
:1021E000331F400090B48EB000AF7862B0EE404A2A
:1021F000F0EE604AB0EE415AF0EE615AB0EE426A3B
:10220000F0EE626AB0EE437AF0EE637A87ED054A4B
:10221000C7ED064A87ED075AC7ED085A87ED016AF0
:10222000C7ED026A87ED037AC7ED047A97ED057A68
:10223000D7ED017A77EE277AC7ED0A7A97ED067A1D
:10224000D7ED027A77EE277AC7ED0B7A97ED077A0A
:10225000D7ED037A77EE277AC7ED0C7A97ED087AF7
:10226000D7ED047A77EE277AC7ED0D7A7B6A1C46A4
:1022700007F128030FCB84E80F00786A3837BD4692
:1022800090BC704790B48EB000AF7862B0EE404A18
:10229000F0EE604AB0EE415AF0EE615AB0EE426A9A
:1022A000F0EE626AB0EE437AF0EE637A87ED054AAB
:1022B000C7ED064A87ED075AC7ED085A87ED016A50
:1022C000C7ED026A87ED037AC7ED047A97ED057AC8
:1022D000D7ED017A27EE277AD7ED066AD7ED027A95
:1022E00066EEA77A37EE677AD7ED076AD7ED037AFD
:1022F00066EEA77A37EE677AD7ED086AD7ED047AEB
:1023000066EEA77A77EE677AC7ED0A7A97ED057AD7
:10231000D7ED027A27EE277AD7ED066AD7ED017A54
:1023200066EEA77A37EE277AD7ED076AD7ED047AFB
:1023300066EEA77A37EE277AD7ED086AD7ED037AEB
:1023400066EEA77A77EE677AC7ED0B7A97ED057A96
:10235000D7ED037A27EE277AD7ED066AD7ED047A10
:1023600066EEA77A37EE677AD7ED076AD7ED017A7E
:1023700066EEA77A37EE277AD7ED086AD7ED027AAC
:1023800066EEA77A77EE277AC7ED0C7A97ED057A95
:10239000D7ED047A27EE277AD7ED066AD7ED037AD0
:1023A00066EEA77A37EE277AD7ED076AD7ED027A7D
:1023B00066EEA77A37EE677AD7ED086AD7ED017A2D
:1023C00066EEA77A77EE277AC7ED0D7A7B6A1C4610
:1023D00007F128030FCB84E80F00786A3837BD4631
:1023E00090BC704790B48CB000AFF861F0EE404AFA
:1023F000B0EE605AF0EE415AB0EE616AF0EE426A19
:10240000B0EE627AF0EE437AC7ED034A87ED045AE4
:10241000C7ED055A87ED066AC7ED006A87ED017AB8
:10242000C7ED027AD7ED047AB1EE677AD7ED007A7C
:1024300027EE277AD7ED056AD7ED017A66EEA77AFF
:1024400037EE677AD7ED066AD7ED027A66EEA77A9D
:1024500077EE677AC7ED087A97ED037AD7ED007AC1
:1024600027EE277AD7ED056AD7ED027A66EEA77ACE
:1024700037EE277AD7ED066AD7ED017A66EEA77AAE
:1024800077EE677AC7ED097A97ED037AD7ED017A8F
:1024900027EE277AD7ED046AD7ED027A66EEA77A9F
:1024A00037EE677AD7ED066AD7ED007A66EEA77A3F
:1024B00077EE277AC7ED0A7A97ED037AD7ED027A9D
:1024C00027EE277AD7ED046AD7ED017A66EEA77A70
:1024D00037EE277AD7ED056AD7ED007A66EEA77A50
:1024E00077EE677AC7ED0B7AFB691C4607F120038C
:1024F0000FCB84E80F00F8693037BD4690BC7047B9
:1025000090B58DB000AF7861B0EE406AF0EE606AD1
:10251000B0EE417AF0EE617A87ED016AC7ED026AAA
:1025200087ED037AC7ED047A97ED017AD7ED017A4A
:1025300027EE277AD7ED026AD7ED027A66EEA77A00
:1025400037EE277AD7ED036AD7ED037A66EEA77ADE
:1025500037EE277AD7ED046AD7ED047A66EEA77ACC
:1025600077EE277AB0EE670A174B984787ED0B0A8C
:1025700097ED017AD7ED0B7A67EE277AC7ED077AE8
:1025800097ED027AD7ED0B7A67EE277AC7ED087AD6
:1025900097ED037AD7ED0B7A67EE277AC7ED097AC4
:1025A00097ED047AD7ED0B7A67EE277AC7ED0A7AB2
:1025B0007B691C4607F11C030FCB84E80F00786988
:1025C0003437BD4690BD00BFB11D400090B587B007
:1025D00000AF7860094B07F108040FCB84E80F00C7
:1025E00007F1080319467868054B98477868054B4A
:1025F000984700BF1C37BD4690BD00BFFCC24000DD
:10260000C52640000926400080B483B000AF786042
:102610007B684FF07E521A617B684FF000025A616E
:102620007B684FF000029A617B684FF00002DA612C
:102630007B684FF000021A627B684FF000025A621A
:102640007B684FF000029A627B68012283F82C209D
:102650007B681B4A1A637B684FF000029A637B68B1
:102660004FF00002DA637B684FF000021A647B6867
:102670004FF000025A647B684FF000029A647B6856
:102680004FF00002DA647B68002283F850207B68F8
:1026900000225A657B68002283F858207B6800225C
:1026A00083F859207B680022DA657B68002283F872
:1026B000602000BF0C37BD465DF8047B704700BF4B
:1026C0000000204180B582B000AF786039603B687F
:1026D0001A687B681A603B68D3ED017AF5EE407AA0
:1026E000F1EE10FA03D03B68DB68002B03D17B6866
:1026F000354A5A601AE03B68D3ED017AB0EE670ABA
:10270000324B984710EE103A1846314B984707EE77
:10271000100AF6EE007A67EE277A4FF0804117EE46
:10272000900A2C4B984702467B685A603B68D3ED71
:10273000027AF5EE407AF1EE10FA03D03B68DB68DE
:10274000002B03D17B68204A9A601AE03B68D3EDE6
:10275000027AB0EE670A1D4B984710EE103A184601
:102760001B4B984707EE100AF6EE007A67EE277AC1
:102770004FF0804117EE900A164B984702467B684F
:102780009A603B68DA687B68DA607B6893F82C3083
:1027900083F00103DBB2002B03D07B681A687B68EF
:1027A0001A637B68D3ED007AB2EE047A37EE677A6B
:1027B000F0EE086AC7EE267A7B68C3ED0D7A00BF9B
:1027C0000837BD4680BD00BFFFFF7F7F891D4000E9
:1027D00085434000A544400090B5B7B002AFF86112
:1027E00007F1100080E80E00FB69203307F1E002DA
:1027F00007CA83E80700FB6993F82C30002B25D02B
:10280000FB6993ED0C7AFB69D3ED0D6AD7ED3E7A47
:1028100066EEA77A77EE677AFB69C3ED0C7AFB69FF
:1028200093ED0C7AFB69D3ED007AB4EEE77AF1EE22
:1028300010FA0BD5FB691A68FB691A63FB69002261
:1028400083F82C20FB69002283F85820FB6993ED64
:10285000057AFB69D3ED077A27EE277AFB69D3ED7A
:10286000046AFB69D3ED067A66EEA77A77EE677A9B
:10287000C7ED1B7AFB6993ED067AFB69D3ED077A06
:1028800027EE277AFB69D3ED046AFB69D3ED057A5D
:1028900066EEA77A77EE277AC7ED1C7AFB6993ED8F
:1028A000047AFB69D3ED047A67EE277AB6EE007AF4
:1028B00037EEC77AFB69D3ED076AFB69D3ED077A78
:1028C00066EEA77A77EE277AC7ED1D7A4FF0000300
:1028D0003B664FF000037B664FF00003BB66FB696D
:1028E000012283F85020D7ED386A97ED397AD7ED79
:1028F0003A7AB0EE660AF0EE470AB0EE671A494B34
:102900009847034683F00103DBB2002B00F0998067
:10291000FB695A6DFB69DB689A4218D3FB6907F1C2
:102920002C0410330FCB84E80F00F8693E4B984716
:10293000FB6903F1100407F12C030FCB84E80F00AF
:10294000FB6900225A65FB69012283F8582007F1D0
:102950007803D7ED386A97ED397AD7ED3A7AB0EE49
:10296000660AF0EE470AB0EE671A18462F4B9847F2
:10297000FC693B4697ED1B5AD7ED1C5A97ED1D6A33
:10298000D7ED1E6A97ED1F7AD7ED207AF0EE451A43
:10299000B0EE652AF0EE462AB0EE660AF0EE470A7F
:1029A000B0EE671A1846224B984704F138033A46AE
:1029B00007CA83E80700FB6993F82C30002B18D175
:1029C000FB69D3ED0E6A93ED0F7AD3ED107AB0EE7A
:1029D000660AF0EE470AB0EE671A164B9847B0EE5B
:1029E000407AFB69D3ED017AB4EEE77AF1EE10FAA2
:1029F00022D8FA6907F16003383207CA83E8070072
:102A0000FB69002283F85020FB695A6DFB695B6DFE
:102A1000092B01D90A2300E00023D21AFB695A6569
:102A20000FE000BF111E4000092640006121400058
:102A300023204000D5204000FB695B6D5A1CFB69D8
:102A40005A654FF000037B654FF00003BB654FF004
:102A50000003FB65FB69012283F85920D7ED3B6A2F
:102A600097ED3C7AD7ED3D7AB0EE660AF0EE470A74
:102A7000B0EE671A794B9847034683F00103DBB247
:102A8000002B00F0FC80FB69002283F86020FB69CA
:102A9000DA6DFB69DB689A4219D36A4607F1F003E5
:102AA00093E8030082E80300D7F8EC3007F16C02EA
:102AB00007CA6B4CA04703461946F869694B98470B
:102AC000FB690022DA65FB69012283F86020FB695B
:102AD00093ED057AFB69D3ED067A27EE277AFB6939
:102AE000D3ED046AFB69D3ED077A66EEA77A77EE39
:102AF000277AC7ED087AFB6993ED047AFB69D3ED79
:102B0000047A67EE277AB6EE007A37EEC77AFB6969
:102B1000D3ED066AFB69D3ED067A66EEA77A77EE07
:102B2000277AC7ED097AFB6993ED067AFB69D3ED45
:102B3000077A27EE277AFB69D3ED046AFB69D3EDA8
:102B4000057A66EEA77A77EE677AC7ED0A7A07F11B
:102B5000840397ED3B5AD7ED3C5A97ED3D6AD7ED8C
:102B60001B6A97ED1C7AD7ED1D7AF0EE451AB0EE90
:102B7000652AF0EE462AB0EE660AF0EE470AB0EE9D
:102B8000671A1846384B984707F19003D7ED216A2A
:102B900097ED227AD7ED237AB0EE660AF0EE470A77
:102BA000B0EE671A1846314B9847FC693B4697EDE3
:102BB000085AD7ED095A97ED0A6AD7ED246A97EDBE
:102BC000257AD7ED267AF0EE451AB0EE652AF0EEBA
:102BD000462AB0EE660AF0EE470AB0EE671A1846CB
:102BE000214B984704F144033A4607CA83E807009B
:102BF000FB6993F82C30002B18D1FB69D3ED116AD7
:102C000093ED127AD3ED137AB0EE660AF0EE470A2E
:102C1000B0EE671A164B9847B0EE407AFB69D3EDD9
:102C2000027AB4EEE77AF1EE10FA23D8FA6907F1E6
:102C30005403443207CA83E80700FB69002283F883
:102C40005920FB69DA6DFB69DB6D092B01D90A2379
:102C500000E00023D21AFB69DA6510E0111E400083
:102C6000A9334000092F400023204000612140008B
:102C7000D5204000FB69DB6D5A1CFB69DA65B6EEB6
:102C8000000A734B9847B0EE406A07F14803D7ED4E
:102C9000046A97ED057AD7ED067AF0EE461AB0EEA3
:102CA000660AF0EE470AB0EE671A1846694B984775
:102CB00007F19C0397ED155AD7ED165A97ED176A51
:102CC000D7ED186A97ED197AD7ED1A7AF0EE451A12
:102CD000B0EE652AF0EE462AB0EE660AF0EE470A3C
:102CE000B0EE671A18465C4B9847FB6993ED0C6A87
:102CF00007F1A803D7ED276A97ED287AD7ED297A4F
:102D0000F0EE461AB0EE660AF0EE470AB0EE671A29
:102D10001846504B984707F13C0397ED2A5AD7EDD8
:102D20002B5A97ED2C6AD7ED126A97ED137AD7EDEF
:102D3000147AF0EE451AB0EE652AF0EE462AB0EEAF
:102D4000660AF0EE470AB0EE671A1846424B9847FB
:102D500007F1B403D7ED0F6A97ED107AD7ED117A2A
:102D6000D7ED3E1AB0EE660AF0EE470AB0EE671AEB
:102D70001846384B984707F1C002D7ED2D4A97ED1A
:102D80002E5AD7ED2F5AFB6993ED046AD3ED056AED
:102D900093ED067AD3ED077AB0EE642AF0EE452A79
:102DA000B0EE653AB0EE460AF0EE660AB0EE471AAB
:102DB000F0EE671A1046294B9847FC693A4697EDA2
:102DC000304AD7ED314A97ED325AD7ED335AFB6985
:102DD00093ED046AD3ED056A93ED067AD3ED077A95
:102DE000B0EE442AF0EE642AB0EE453AF0EE653AD1
:102DF000B0EE460AF0EE660AB0EE471AF0EE671A39
:102E00001046174B984710343B460FCB84E80F0011
:102E1000FC693A46FB6993ED046AD3ED056A93EDCC
:102E2000067AD3ED077AB0EE460AF0EE660AB0EE07
:102E3000471AF0EE671A10460A4B984710343B4683
:102E40000FCB84E80F0000BFD437BD4690BD00BF54
:102E5000891D4000331F4000711E4000E5234000E3
:102E6000E52140000125400090B591B008AFF86021
:102E7000384680E80E004FF000037B614FF00003FE
:102E8000BB614FF00003FB61FB6B069303AC07F1E2
:102E9000140393E8070084E807006B4607F130024B
:102EA00007CA83E807003B460ECBF8680B4CA047E7
:102EB000FB6893F82C30002B0CD0FB6893F858304B
:102EC00083F00103DBB2002B04D04FF00001F8685F
:102ED000034B984700BF2437BD4690BDD92740001B
:102EE000092F400090B482B000AF786039607A68F2
:102EF0003B68144610330FCB84E80F00786808371E
:102F0000BD4690BC7047000090B58DB000AF7861B1
:102F100039617B6993ED047A7B69D3ED077A27EEFB
:102F2000277A7B69D3ED056A7B69D3ED067A66EE75
:102F3000A77A37EE276A7B6993ED067A7B69D3ED32
:102F4000067A67EE277AB6EE007A37EE677A7B6903
:102F5000D3ED076A7B69D3ED077A66EEA77A77EE41
:102F6000677A17EE901A16EE100A2B4B9847F86204
:102F700097ED040A294B9847B0EE407AD7ED0B7ACB
:102F800077EEC77AB6EE007A67EE877AC7ED0A7AEF
:102F9000B86A234B98470346BB614FF00003FB61BF
:102FA0004FF000033B62B86A1E4B9847034607EE9A
:102FB000903AF1EE677AC7ED097A7C693A467B6907
:102FC00093ED044AD3ED054A93ED065AD3ED075A23
:102FD00097ED066AD7ED076A97ED087AD7ED097A7B
:102FE000B0EE442AF0EE642AB0EE453AF0EE653ACF
:102FF000B0EE460AF0EE660AB0EE471AF0EE671A37
:103000001046094B984710343B460FCB84E80F001D
:1030100000BF3437BD4690BDA1444000891D40002B
:103020000D434000854340008522400080B483B0BA
:1030300000AF87ED010AD7ED017A9FED057A67EEC3
:10304000877AB0EE670A0C37BD465DF8047B70479F
:10305000E02E654280B485B000AF87ED010A7B6841
:10306000FB60FB685A10104B9B1AFB6097ED037ACC
:10307000D7ED017ADFED0D6A67EEA66AD7ED037A28
:1030800066EEA76AD7ED037A66EEA77ADFED086AE7
:1030900076EEE77A67EE277AB0EE670A1437BD4618
:1030A0005DF8047B704700BF12141F5F12D3363FD8
:1030B000FF51D83F80B485B000AFF0EE406AB0EE6B
:1030C000607AF0EE417AC7ED016A87ED027AC7EDCA
:1030D000037A97ED017AD7ED027A37EE277AD7EDAA
:1030E000037A77EE277AB0EE670A1437BD465DF8AB
:1030F000047B704790B48AB000AF7861F0EE406A0C
:10310000B0EE607AF0EE417AC7ED011AC7ED026ABF
:1031100087ED037AC7ED047A97ED027AD7ED017A4D
:1031200067EE277AC7ED077A97ED037AD7ED017A34
:1031300067EE277AC7ED087A97ED047AD7ED017A22
:1031400067EE277AC7ED097A7B691C4607F11C03F5
:1031500093E8070084E8070078692837BD4690BCEB
:10316000704790B48CB000AFF861B0EE405AF0EE0A
:10317000605AB0EE416AF0EE616AB0EE427AF0EE6B
:10318000627A87ED045AC7ED055A87ED066AC7EDE6
:10319000016A87ED027AC7ED037A97ED047AD7EDDD
:1031A000017A67EE277AC7ED097A97ED057AD7EDB0
:1031B000027A67EE277AC7ED0A7A97ED067AD7ED9D
:1031C000037A67EE277AC7ED0B7AFB691C4607F195
:1031D000240393E8070084E80700F8693037BD4608
:1031E00090BC704790B48CB000AFF861B0EE405A1C
:1031F000F0EE605AB0EE416AF0EE616AB0EE427AEB
:10320000F0EE627A87ED045AC7ED055A87ED066A3B
:10321000C7ED016A87ED027AC7ED037A97ED057A6B
:10322000D7ED037A27EE277AD7ED066AD7ED027A33
:1032300066EEA77A77EE677AC7ED097A97ED067A98
:10324000D7ED017A27EE277AD7ED046AD7ED037A16
:1032500066EEA77A77EE677AC7ED0A7A97ED047A79
:10326000D7ED027A27EE277AD7ED056AD7ED017AF6
:1032700066EEA77A77EE677AC7ED0B7AFB691C4694
:1032800007F1240393E8070084E80700F869303762
:10329000BD4690BC7047000080B588B000AFF0EE2E
:1032A000406AB0EE607AF0EE417AC7ED016A87EDD0
:1032B000027AC7ED037A07F1140397ED015AD7EDAF
:1032C000025A97ED036AD7ED016A97ED027AD7EDBE
:1032D000037AF0EE451AB0EE652AF0EE462AB0EE1B
:1032E000660AF0EE470AB0EE671A18460B4B98478D
:1032F000D7ED056A97ED067AD7ED077AB0EE660A44
:10330000F0EE470AB0EE671A054B9847F0EE407AA8
:10331000B0EE670A2037BD4680BD00BF6331400074
:10332000B530400080B586B000AFF860F0EE406A7E
:10333000B0EE607AF0EE417AC7ED006A87ED017A6F
:10334000C7ED027AD7ED006A97ED017AD7ED027AE0
:10335000B0EE660AF0EE470AB0EE671A0F4B9847D8
:10336000F0EE407AB0EE670A0D4B984787ED050AFC
:10337000FB68D7ED006A97ED017AD7ED027AD7EDB9
:10338000051AB0EE660AF0EE470AB0EE671A184664
:10339000044B9847F8681837BD4680BD9932400005
:1033A00055304000F530400082B090B591B000AF8C
:1033B0003C1D84E807007B6507F1280397ED155A4B
:1033C000D7ED165A97ED176AD7ED016A97ED027A95
:1033D000D7ED037AF0EE451AB0EE652AF0EE462AF4
:1033E000B0EE660AF0EE470AB0EE671A18462B4BAD
:1033F000984707F11C03D7ED0A6A97ED0B7AD7EDD2
:103400000C7AB0EE660AF0EE470AB0EE671A18467C
:10341000234B984707F1340397ED015AD7ED025A31
:1034200097ED036AD7ED076A97ED087AD7ED097A29
:10343000F0EE451AB0EE652AF0EE462AB0EE660AC6
:10344000F0EE470AB0EE671A1846144B984707F19A
:103450001003D7ED0D6A97ED0E7AD7ED0F7AB0EE27
:10346000660AF0EE470AB0EE671A18460C4B98470A
:10347000FB693A69114618460A4B9847034600EE25
:10348000103A094B9847F0EE407A17EE903A1846FA
:103490004437BD46BDE8904002B07047E53140007A
:1034A00025334000A14440002D30400080B483B05B
:1034B00000AF0346FB71094997F907305B09FA79B8
:1034C00002F01F02012000FA02F241F8232000BF9F
:1034D0000C37BD465DF8047B704700BF00E100E09B
:1034E00080B483B000AF0346FB71094997F90730F8
:1034F0005B09FA7902F01F02012000FA02F2203380
:1035000041F8232000BF0C37BD465DF8047B7047AF
:1035100000E100E080B483B000AF0346FB710949CD
:1035200097F907305B09FA7902F01F02012000FACF
:1035300002F2603341F8232000BF0C37BD465DF82E
:10354000047B704700E100E080B483B000AF034625
:103550003960FB7197F90730002B0BDA0D49FB79C5
:1035600003F00F03043B3A68D2B25201D2B20B44CB
:103570001A7609E0084997F907303A68D2B2520141
:10358000D2B20B4483F8002300BF0C37BD465DF870
:10359000047B704700ED00E000E100E080B483B000
:1035A00000AF78607B68072B25D801A252F823F082
:1035B000D1354000D7354000DD354000E3354000CF
:1035C000E7354000EB354000EF354000F335400073
:1035D0004FF4FA4310E04FF400430DE04FF4004382
:1035E0000AE0084B08E0084B06E0084B04E0074BF4
:1035F00002E0064B00E0002318460C37BD465DF89C
:10360000047B704700093D0000127A00001BB700E0
:1036100080B500AF0620054B9847024613469B0035
:1036200013449A001344184680BD00BF9D354000E6
:1036300080B500AF024B98470346184680BD00BFD7
:103640001136400080B500AF024B984703465B0837
:10365000184680BD1136400080B582B000AF78605A
:103660007868034B984700BF0837BD4680BD00BF50
:10367000C10F400080B58CB000AF78603960494B15
:10368000984703467B623B681B68BB623B689B684C
:10369000FB623B681B68FB603B685B683B613B68A7
:1036A0009B687B613B68DB68BB610023FB617B68D7
:1036B0003D4A934208D107203C4B984707F1240329
:1036C000194678683A4B98477B683A4A934208D142
:1036D0000820364B984707F1240319467868344B85
:1036E00098477B68344A934208D12C202F4B984747
:1036F00007F12403194678682D4B98477B682F4AB9
:10370000934208D12D20294B984707F124031946ED
:103710007868274B98477B68294A934211D10D203E
:10372000224B98471F4B9847024607F10C03194656
:103730007868244B98477868234B98477868234BE0
:1037400098477B68224A934211D10E20174B984725
:10375000144B9847024607F10C0319467868194B39
:1037600098477868184B98477868184B98477B6853
:10377000184A934211D10F200C4B9847094B984798
:10378000024607F10C03194678680E4B9847786893
:103790000D4B984778680D4B984700BF3037BD46B2
:1037A00080BD00BF4536400000080E40593640003D
:1037B000431A4000000A0E40001A0E40001C0E4042
:1037C00000400240DD1B4000611C4000951C400091
:1037D0000080024000C0024080B582B000AF786037
:1037E0000B46FB707B68364A93420AD100BFFB78D8
:1037F00019467868334B98470346002BF7D10123CD
:103800005AE07B68304A93420AD100BFFB781946E0
:1038100078682C4B98470346002BF7D101234BE0E7
:103820007B682A4A93420AD100BFFB781946786820
:10383000244B98470346002BF7D101233CE07B68DB
:10384000234A93420AD100BFFB78194678681D4B82
:1038500098470346002BF7D101232DE07B681D4AD2
:1038600093420AD100BFFB78194678681A4B9847F3
:103870000346002BF7D101231EE07B68174A9342D1
:103880000AD100BFFB7819467868134B9847034666
:10389000002BF7D101230FE07B68114A93420AD134
:1038A00000BFFB78194678680B4B98470346002BFE
:1038B000F7D1012300E0002318460837BD4680BD3C
:1038C00000080E409B1A4000000A0E40001A0E40ED
:1038D000001C0E4000400240011D400000800240DC
:1038E00000C0024080B584B000AF7860396000232A
:1038F000FB607B68344A934207D100BF396878681F
:10390000324B98470346002BF8D17B68304A9342EC
:1039100007D100BF396878682C4B98470346002BC5
:10392000F8D17B682B4A934207D100BF3968786889
:10393000264B98470346002BF8D17B68264A9342D2
:1039400007D100BF39687868204B98470346002BA1
:10395000F8D17B68214A93420DD100BF07F10C03D7
:10396000194678681E4B98470346002BF6D1FB6832
:10397000DAB23B681A707B681A4A93420DD100BFD5
:1039800007F10C0319467868154B98470346002B3E
:10399000F6D1FB68DAB23B681A707B68124A934230
:1039A0000DD100BF07F10C03194678680C4B9847FE
:1039B0000346002BF6D1FB68DAB23B681A7000BFF1
:1039C0001037BD4680BD00BF00080E40CB1A400036
:1039D000000A0E40001A0E40001C0E40004002403B
:1039E000331D40000080024000C0024080B582B01C
:1039F00000AF786039600F4A7B6813600E4B0F4A46
:103A00001A600F4B0F4A1A60396878680E4B984756
:103A10000E4B1B689B68002118460D4B98470B4BBB
:103A20001B685B6800211846094B984700BF0837A0
:103A3000BD4680BD8C0A4020880A4020D93740000E
:103A4000840A4020E5384000753640000C004020D4
:103A50002D75400080B483B000AF87ED010AD7ED2B
:103A6000017A9FED057A67EE877AB0EE670A0C3728
:103A7000BD465DF8047B7047E02E654290B58BB083
:103A800000AF7861B0EE406AF0EE606AB0EE417A65
:103A9000F0EE617A87ED016AC7ED026A87ED037A7D
:103AA000C7ED047A97ED037AD7ED037A67EE277AAC
:103AB000B6EE007A77EE677AC7ED097A97ED017A6C
:103AC000D7ED027A27EE277AD7ED036AD7ED047A8D
:103AD00066EEA77A77EE276A97ED027AD7ED027A3B
:103AE00067EE277A97ED097A77EE677A17EE901AE4
:103AF00016EE900A2D4B9847034600EE103A2C4BD9
:103B00009847F0EE407AC7ED067A97ED017AD7ED47
:103B1000037A27EE277AD7ED046AD7ED027A66EEAC
:103B2000A77A77EE677A77EEA77A17EE900A214B9D
:103B30009847034600EE103A1D4B9847F0EE407A46
:103B4000C7ED077A97ED017AD7ED047A27EE277A49
:103B5000D7ED026AD7ED037A66EEA77A77EE276A89
:103B600097ED047AD7ED047A67EE277A97ED097A14
:103B700077EE677A17EE901A16EE900A0B4B98477D
:103B8000034600EE103A0A4B9847F0EE407AC7ED34
:103B9000087A7B691C4607F1180393E8070084E85C
:103BA000070078692C37BD4690BD00BFA144400096
:103BB000553A40000144400080B586B000AFF8603F
:103BC000B9607A60DFED266A97ED037AC6EE877AF0
:103BD000FDEEE77AC7ED007A3B88FB8200212148A1
:103BE000214B9847FB8A19461E48204B98477B6813
:103BF00003F48033002B12D01A481D4B98473861CC
:103C000000BF18481A4B984702463B699A42F8D0C1
:103C1000BA683B69134419461248164B984703206B
:103C2000154B98470320154B984704210320144B4C
:103C300098470320134B98477B6803F44033002BCD
:103C400004D079680748104B984704E04FF440319E
:103C500004480E4B984700BF1837BD4680BD00BFD3
:103C60000000004730180E4075104000451040001D
:103C70004511400075114000E13440001535400009
:103C800049354000AD344000CD10400005114000E2
:103C900090B585B000AF0B20154B98470A20144B08
:103CA000984710224FF000511248134B98474FF499
:103CB00000124FF0006111480F4B9847104A104B0B
:103CC000D3F8143143F01003C2F814310D4B3C46C5
:103CD0000FCB84E80F000E20054B98473B46194652
:103CE00009480A4B984700BF1437BD4690BD00BF36
:103CF0005936400000100E40910A4000000E0E4060
:103D0000008008400CC3400000800240ED394000B4
:103D100080B584B000AF1320084B9847084B9847F4
:103D200003467B6049F64043BB603B1D194605488E
:103D3000054B984700BF1037BD4680BDC10F4000FE
:103D40003136400000800140B916400080B588B08F
:103D500000AF3A601A460346FB710B46BB7113462F
:103D60007B710023FB61FB793B76BB793B720123BE
:103D7000FB603B683B617B797B6107F10803194677
:103D80000548064B98470346FB61FB695BB2184642
:103D90002037BD4680BD00BF00800140491940006A
:103DA00080B588B000AF3A601A460346FB710B46F7
:103DB000BB7113467B710023FB61FB793B76BB79BA
:103DC0003B720123FB603B683B617B797B6107F1C0
:103DD0000803194609480A4B98470346FB6107F157
:103DE000080319460548064B98470346FB61FB69E3
:103DF0005BB218462037BD4680BD00BF0080014041
:103E0000611840002DE9B04FE2B006AFB84B9847BB
:103E1000B84B9847B84B4FF400425A60B74B98479D
:103E200007F124031846B64B9847B648B64B984757
:103E3000B64B984707F1EC02012375216820B44C7A
:103E4000A047034687F86B3197F86B31002B02D0FF
:103E5000B048AD4B984797F8EC30682B05D097F8F1
:103E6000EC301946AC48AD4B9847012387F88830B1
:103E700007F1880201236B216820A94CA047034663
:103E800087F86B3197F86B31002B02D0A5489E4B19
:103E9000984700220021A448A44B98470023C7F864
:103EA0006C31002387F8883007F1880201231C2138
:103EB00068209B4CA047034687F86B3101239C4A3E
:103EC0003B216820924CA047034687F86B310123C1
:103ED000984A3C2168208E4CA047034687F86B31F6
:103EE0000123954A3D216820894CA047034687F865
:103EF0006B310123914A40216820854CA04703463D
:103F000087F86B3101238E4A3F216820804CA047FF
:103F1000034687F86B3101238A4A402168207C4C94
:103F2000A047034687F86B31814B1B78DBB21B023D
:103F30001AB2804B1B78DBB21BB213431AB2824B0E
:103F40001A807D4B1B78DBB21B021AB27B4B1B78AD
:103F5000DBB21BB213431AB27C4B1A80784B1B782E
:103F6000DBB21B021AB2774B1B78DBB21BB21343D6
:103F70001AB2774B1A80744BB3F9003007EE903ABF
:103F8000B8EEE77ADFED736AC7EE267A724BC3EDBF
:103F9000007A6E4BB3F9003007EE903AB8EEE77A4C
:103FA000DFED6C6AC7EE267A6C4BC3ED007A684B86
:103FB000B3F9003007EE903AB8EEE77ADFED656AC4
:103FC000C7EE267A664BC3ED007A002387F8883067
:103FD00007F1880201231B216820514CA0470346AA
:103FE00087F86B3101235F4A43216820484CA04782
:103FF000034687F86B3101235B4A44216820444C17
:10400000A047034687F86B310123584A45216820B1
:104010003F4CA047034687F86B310123544A48219F
:1040200068203B4CA047034687F86B310123514A77
:1040300047216820364CA047034687F86B3101239F
:104040004D4A48216820324CA047034687F86B311F
:10405000444B1B78DBB21B021AB2434B1B78DBB21A
:104060001BB213431AB2454B1A80404B1B78DBB28C
:104070001B021AB23E4B1B78DBB21BB213431AB2BF
:104080003F4B1A803B4B1B78DBB21B021AB23A4BF8
:104090001B78DBB21BB213431AB23A4B1A80374B70
:1040A000B3F9003007EE903AB8EEE77ADFED366A02
:1040B000C7EE267A354BC3ED007A314BB3F90030A9
:1040C00007EE903AB8EEE77ADFED2F6AC7EE267A70
:1040D0002F4BC3ED007A2B4BB3F9003007EE903A2B
:1040E000B8EEE77ADFED286AC7EE267A52E000BF25
:1040F000AD044000BD09400050180E40913C400006
:10410000CD2540001CC340001D754000113D4000FE
:10411000A13D400034C340004CC3400059744000EE
:104120004D3D400074C3400000007A44B93B40005C
:10413000B60A4020A20A4020BD0A4020C50A4020FD
:104140009C0A4020C40A4020B40A40209E0A402015
:10415000A40A402000008046AC0A4020940A402077
:10416000B80A4020B20A40209D0A4020B70A4020E9
:10417000B30A4020BC0A4020900A4020A00A4020F8
:10418000BE0A4020B00A402000000343C00A40207D
:10419000A80A40204B4BC3ED007A4B4B1A6807F13D
:1041A00018031A60494B1A6807F118035A60454B07
:1041B0001A6807F118039A60454B1A6807F10C0357
:1041C0001A60444B1A6807F10C035A60424B1A6894
:1041D00007F10C039A604148414B98470346C7F8E2
:1041E0006431D7F86421D7F86C31D21A3D4B1046B0
:1041F00098473D4C4FF000023C4BA04703460C460D
:10420000194622463A4B0846114698470346C7F8D6
:104210006031D7F86431C7F86C3107F1180307F142
:104220002405D7F86021039207F10C026C4607CAF7
:1042300084E807000ECB28462E4CA04707F5A8734C
:1042400007F12402114618462B4B98473B4697ED41
:10425000546AD7ED556A97ED567AD7ED577AB0EE96
:10426000460AF0EE660AB0EE471AF0EE671A1846F4
:10427000224B9847224BD7F86001984782468B46DD
:104280003B461A681E4B1046984704460D463B466F
:104290005A681B4B10469847804689463B469A68A9
:1042A000174B1046984702460B46CDE90423CDE94B
:1042B0000289CDE9004552465B46124812498847BB
:1042C000EFE500BF980A4020C00A4020A80A40201D
:1042D000AC0A4020940A4020B80A402030180E4012
:1042E00045114000A1664000C169400000408F4078
:1042F000A16C4000692E4000E52E40007D3A400050
:10430000C56640008CC340005974400000B51C4A8B
:1043100020F00043934283B018DDB3F1FF4F05DB7B
:10432000014602F011FD03B05DF804FB694600F0A0
:1043300087FF00F00302012A15D0022A0CD0CAB16F
:1043400001220199009801F087FDECE7002101F0BE
:1043500039F903B05DF804FB0199009801F032F9D6
:1043600000F10040DFE70199009801F075FD00F1D0
:104370000040D8E70199009801F024F9D3E700BF85
:10438000D80F493F00B51D4A20F00043934283B047
:1043900019DDB3F1FF4F05DB014602F0D5FC03B098
:1043A0005DF804FB694600F04BFF00F003000128B4
:1043B00018D002280ED0D0B10199009801F002F96E
:1043C00000F10040EBE70022002101F045FD03B0C1
:1043D0005DF804FB01220199009801F03DFD00F118
:1043E0000040DCE70199009801F0ECF8D7E70122E2
:1043F0000199009801F030FDD1E700BFD80F493F87
:10440000F0B5244E8BB0044600F0CAF996F900309E
:10441000013305462FD02146204602F065FF0746AE
:1044200048BB204601F036FF4FF07E5102F052FFAC
:1044300008B3194B0897012220468DE80C0002F0C2
:1044400041F902460B461548CDE90423CDE9022384
:1044500001F07AFD96F90030022BCDE906010DD06E
:10446000684601F06FFD48B1089B73B9DDE90601AC
:1044700002F016FC054628460BB0F0BD02F070FFB6
:1044800021230360089B002BF0D002F069FF089BFA
:104490000360EBE708004020B4C34000F0C74000D1
:1044A00000F0C8BA2DE9F047DFF8F0828AB005467F
:1044B0000C4600F051FB98F900707B1C064631D089
:1044C0002146204602F010FF824658BB2946284666
:1044D00002F00AFF00218146002840F0998028461A
:1044E00002F0D0FE10B30021204602F0CBFE82463F
:1044F000002854D0A34BCDF82090012228468DE807
:104500000C0002F0DFF8CDE90201204602F0DAF8F3
:1045100000220023CDE90401CDE90623002F62D05B
:104520004FF07E5630460AB0BDE8F087304601F0C5
:10453000B5FE0746002800F087800021304602F0D3
:10454000A1FE0028EED0284601F0A8FE0028E9D000
:10455000204601F0A3FE0028E4D00423894A0093FA
:10456000284600230893019202F0ACF8CDE902013D
:10457000204602F0A7F898F9003000240025022B0D
:10458000CDE90401CDE9064504D0684601F0DAFC26
:1045900000282ED102F0E4FE2223036029E0204609
:1045A00001F07CFE0028BDD00021204602F074FE00
:1045B0000028B7D0734BCDF820A0012228468DE803
:1045C0000C0002F07FF8CDE90201204602F07AF8F3
:1045D00098F90030CDE90401002B40F092800022D0
:1045E0000023CDE90623684601F0ACFC002800F06A
:1045F0008380089B1BB102F0B3FE089B0360DDE9DA
:10460000060102F04DFB064630460AB0BDE8F087D1
:10461000204602F037FE002884D05A4BCDF820A067
:10462000012228468DE80C0002F04CF8CDE9020189
:10463000204602F047F8544B0022022FCDE9040136
:10464000CDE90623CFD16BE7284601F027FE0028ED
:104650003FF473AF204601F021FE00283FF46DAF18
:104660003146304602F040FE002873D1454B089099
:10467000032228468DE80C0002F024F8CDE902015F
:10468000204602F01FF898F90060CDE904012846A1
:10469000002E3DD13D4B4FF060420021CDE9062375
:1046A00002F0FAFD00283FF470AF20464FF07C5135
:1046B00002F054FC02F006F804460D4601F04AFCF4
:1046C00002460B462046294602F0B8FA00283ED1A1
:1046D0002F4B98F900604FF06042CDE90623022E7F
:1046E0007FF453AF56E71046194602F069F9022CE1
:1046F000CDE906017FF477AF02F032FE212303609B
:1047000077E724490020022BCDE90601F4D06AE7BF
:10471000214B00220021CDE9062302F0BDFD002837
:10472000DDD020464FF07C5102F018FC01F0CAFFAA
:1047300004460D4601F00EFC02460B462046294673
:1047400002F07CFA18B9134B0022CDE9062398F940
:104750000060C4E70B4B0897012228468DE80C0047
:1047600001F0B0FFCDE90201204601F0ABFF98F95E
:104770000040CDE9040100220023002CB3D1CDE993
:10478000062330E7BCC340000000F03FFFFFEF47C7
:10479000FFFFEFC70000F0FF0000F07F080040209F
:1047A0002DE9F84320F00045B5F17E5F044600F0A6
:1047B000C68012DCB5F17C5F064616DAB5F1485FBB
:1047C00080F2CB808B4902F0C1FA4FF07E5102F0AB
:1047D00081FD50B12046BDE8F883014602F0B4FAED
:1047E000014602F06FFCBDE8F883204601F052FD5F
:1047F00001464FF07E5002F0A7FA4FF07C5102F0D4
:10480000ADFB7D49044602F0A9FB7C4902F09EFA0B
:10481000214602F0A3FB7A4902F096FA214602F003
:104820009DFB784902F092FA214602F097FB764907
:1048300002F08AFA214602F091FB744902F086FAEE
:10484000214602F08BFB72498046204602F086FB2F
:10485000704902F079FA214602F080FB6E4902F0BD
:1048600075FA214602F07AFB6C4902F06DFA214696
:1048700002F074FB4FF07E5102F068FA8146204648
:1048800000F04CFE664B9D4207464946404643DCDD
:1048900002F018FC39468046384602F057FA0146C5
:1048A000404602F05BFB27F47F6525F00F0580464C
:1048B0002946284602F052FB0146204602F044FAFF
:1048C00039460446284602F041FA0146204602F0E5
:1048D000F9FB014602F03AFA0146524802F034FA76
:1048E0000146404602F030FA29460446284602F0C6
:1048F0002DFA01464C4802F027FA0146204602F004
:1049000023FA0146484802F01FFA002E3FF763AF32
:1049100000F10040BDE8F88302F0D4FB394602F014
:104920001DFB394602F012FA014602F00FFA3F4928
:1049300002F00CFA01463E4802F006FAE5E73C496F
:1049400002F00CFB37490546204602F007FB014602
:10495000284602F0FBF9BDE8F883014602F0FEFAB2
:104960002549054602F0FAFA244902F0EFF92946F2
:1049700002F0F4FA224902F0E7F9294602F0EEFAD1
:10498000204902F0E3F9294602F0E8FA1E4902F054
:10499000DBF9294602F0E2FA1C4902F0D7F9294670
:1049A00002F0DCFA1A490646284602F0D7FA1949FD
:1049B00002F0CAF9294602F0D1FA174902F0C6F905
:1049C000294602F0CBFA154902F0BEF9294602F059
:1049D000C5FA4FF07E5102F0B9F90146304602F0B7
:1049E00071FB214602F0BAFA214602F0AFF9BDE8A8
:1049F000F88300BFCAF2497108EF1138047F4F3ABB
:104A00004611243DA80A4E3E90B0A63EABAA2A3ECF
:104A10002EC69D3D6133303F2D57014039D119409D
:104A20009999793F2EBD3BB3DB0F493F2EBD3B33F8
:104A3000DB0FC93FF8B50C4621F00041B1F1FF4F43
:104A4000034614DC20F00046B6F1FF4F07460EDCAB
:104A5000B4F17E5F3DD0A51705F0020545EAD0759B
:104A600056B9022D30D0032D30D13248F8BD194649
:104A7000204602F06BF9F8BD01B3B1F1FF4F2CD025
:104A8000B6F1FF4F1AD0711AC9153C291ADC002C57
:104A900039DB2146184602F015FB01F0FBFB01F063
:104AA000E3FA012D2CD0022D22D0002D2FD0224947
:104AB00002F04CF9214902F047F9F8BD002F06DB5E
:104AC0001F48F8BD1E48ECE71C48F8BDF8BD1D485E
:104AD000F8BDBDE8F84001F0C7BAB6F1FF4F17D0F6
:104AE000022DF1D0032DC0D0012D19D00020F8BD2A
:104AF000114902F02BF90146104802F025F9F8BDE2
:104B000000F10040F8BD3C31C3DA0020C9E7F8BD30
:104B1000022D0CD0032D08D0012D04D00A48F8BD79
:104B20004FF00040F8BD0948F8BD0948F8BD0948F4
:104B3000F8BD00BFDB0F49C02EBDBB33DB0F4940C2
:104B4000DB0FC93FDB0FC9BFDB0F493FDB0F49BF9D
:104B5000E4CB16C0E4CB16402DE9F04F31F000490C
:104B600087B011D020F0004ABAF1FF4F054605DDAD
:104B70004F4807B0BDE8F04F01F0DEBBB9F1FF4F81
:104B800007DDBAF17E5FF3D14FF07E5007B0BDE88C
:104B9000F08F00280C4647DB0026B9F1FF4F3BD0D1
:104BA000B9F17E5F80460F4651D0B4F1804F67D097
:104BB000B4F17C5F1BD001F06DFBBAF1FF4F4ED01A
:104BC000BAF1000F4BD0BAF17E5F48D0ED0F013D36
:104BD00056EA050364D0B9F19A4F6DDD354B9A451D
:104BE00000F35D82002CC0F260820020CEE7002D31
:104BF0004ADA01F04FFBBAF1FF4F02D0BAF1000FD1
:104C0000E1D1AAF17E5A5AEA060342D0012EBDD163
:104C100000F100410846B9E7BAF17E5FB4D02ADD61
:104C2000002CE2DB0846B1E7B9F1974F21DAB9F180
:104C30007E5F0ADB4FEAE953C3F1960349FA03F2B8
:104C400002FA03F3994500F025820026A8E7002C1C
:104C50009CDA01464FF07E5002F034FA96E7002CC1
:104C600004DA01464FF07E5002F02CFA002D8DDA66
:104C7000C7E7022691E7002CB7DA01F1004085E78B
:104C8000014602F06BF981E707B0BDE8F04F00F094
:104C900045BC014602F058F8014602F013FA75E7E8
:104CA0004146404602F050F8014602F00BFA6DE72B
:104CB000F0C74000F7FF7F3FBAF5000F80F2028295
:104CC0004FF0974102F04AF96FF0170182464FEA20
:104CD000EA53B54ACAF3160A7F3B0B44924519467C
:104CE00002934AF07E5840F3E581B04B9A4540F379
:104CF0003D820023184600930B4601334FF07E524D
:104D00000293A8F5000803904FF0000911464046B1
:104D1000019202F019F8019A059211468346404625
:104D2000CDF8048002F012F801464FF07E5002F0F8
:104D3000C9F901460490584602F010F94FEA680894
:104D400048F0005808F58028C84420F47F6929F00D
:104D50000F0982464146484602F000F9014658468E
:104D600001F0F2FF059A83461146404601F0ECFF40
:104D70000146019801F0E8FF494602F0EFF80146CC
:104D8000584601F0E1FF049B194602F0E7F851464E
:104D90000190504602F0E2F88549804602F0DEF8C4
:104DA000844901F0D3FF414602F0D8F8824901F06E
:104DB000CDFF414602F0D2F8804901F0C7FF4146DD
:104DC00002F0CCF87E4901F0C1FF414602F0C6F87E
:104DD0007C4901F0BBFF41468346404602F0BEF8E5
:104DE0000146584602F0BAF851468046484601F05E
:104DF000ADFF019902F0B2F8414601F0A7FF494624
:104E00008346484602F0AAF86F49049001F09EFFDD
:104E1000594601F09BFF20F47F6828F00F084146B7
:104E2000484602F09BF868498146404601F08CFFF5
:104E3000049B194601F088FF0146584601F084FFA3
:104E4000514602F08BF801998246404602F086F8FE
:104E50000146504601F07AFF83460146484601F07C
:104E600075FF20F47F6828F00F084046574902F08C
:104E700075F849468246404601F066FF01465846AD
:104E800001F062FF524902F069F8524981464046FA
:104E900002F064F80146484601F058FF039901F01A
:104EA00055FF8046029802F005F84146814650467B
:104EB00001F04CFF009901F049FF494601F046FF1F
:104EC00020F47F6B2BF00F0B4946584601F03CFF56
:104ED000009901F039FF514601F036FF0146404686
:104EE00001F032FF24F47F64013E24F00F0456EAFF
:104EF000050380462146384614BF4FF07E56364E95
:104F000001F022FF594602F029F83946054640468D
:104F100002F024F80146284601F018FF2146074612
:104F2000584602F01BF880460146384601F00EFF55
:104F300000288146044620F00045C24640F3008127
:104F4000B5F1864F00F3CE8000F0BE80B5F17C5FF6
:104F500000F3D0800025A94624F47F6424F00F04D8
:104F600020461E4901F0FAFF51468046204601F0D6
:104F7000EBFE0146384601F0E7FE194901F0EEFF6D
:104F800018490746204601F0E9FF0146384601F07E
:104F9000DDFE07460146404601F0D8FE4146044684
:104FA00001F0D2FE20E000BF71C41C00D6B35D004A
:104FB00042F1533E55326C3E05A38B3EABAAAA3E4E
:104FC000B76DDB3E9A99193F000040400038763FAC
:104FD0004F38763FA0C39D36000080BF0072313F3E
:104FE0001872313F8CBEBF350146384601F0ACFE29
:104FF00021468046204601F0B1FF8049074601F076
:10500000ADFF7F4901F0A0FE394601F0A7FF7D49C1
:1050100001F09CFE394601F0A1FF7B4901F094FEAE
:10502000394601F09BFF794901F090FE394601F0C5
:1050300095FF0146204601F087FE074601462046BF
:1050400001F08CFF4FF080418246384601F07CFE33
:105050000146504602F036F841460746204601F028
:105060007DFF414601F072FE0146384601F06CFEBC
:10507000214601F069FE01464FF07E5001F064FECA
:105080004319B3F5000FC0F2B5801846314601F060
:1050900065FF7BE502F00102C2F1020680E55C4B90
:1050A0009A456CDD002C7FF7A0AD5A49084601F007
:1050B00055FF6BE5002300934FF07E5203934FF0B2
:1050C000000923E6002102E65349384601F03EFE7E
:1050D00041468246484601F037FE0146504602F0FE
:1050E000F9F838B130464B4901F038FF494901F031
:1050F00035FF4BE5ED154FF400037E3D43FA05F512
:105100002B19C3F3C7524549C3F316097F3A11411E
:1051100049F40009C2F1170249FA02F9002C23EA06
:1051200001014046B8BFC9F1000901F00DFE01467A
:105130008246384601F00AFE4FEAC95504460BE79D
:10514000374B9D420ADC7FF401AF414601F0FCFD84
:105150000146384602F0AAF80028CBD03046314943
:1051600001F0FCFE2F4901F0F9FE0FE52E4B0093F4
:105170002E4B03934FF07F524FF40019C6E54FF0CA
:105180007E5101F0E1FD2A49804601F0E7FE294900
:105190008146404601F0E2FE4FF07A518246404699
:1051A00001F0DCFE0146244801F0CEFD414601F04D
:1051B000D5FE01464FF07C5001F0C6FD41468346C6
:1051C000404601F0CBFE0146584601F0C7FE1B49A0
:1051D00001F0C4FE0146504601F0B6FD014680468E
:1051E000484601F0B3FD20F47F6B2BF00F0B4946CE
:1051F000584671E6494601F0A3F847E74CBB313306
:105200000EEADD3555B38A38610B363BABAA2A3E30
:105210000700803FCAF249713CAA3833FFFF7F0084
:10522000000016436042A20D00C0153FDCCFD1350F
:1052300000AAB83F70A5EC36ABAAAA3E3BAAB83F7D
:105240002DE9F04FA84A20F00044944289B06EDD69
:10525000A64A944206460D461CDC0028A44940F3A9
:10526000FC8001F071FDA34B24F00F049C42064624
:105270006CD0A14901F068FD01462860304601F07C
:1052800063FD9D4901F060FD01276860384609B063
:10529000BDE8F08F994A94426ADDB4F1FF4F4EDACF
:1052A000E715863FA4EBC754204602F033F801F01F
:1052B00001FE034601462046059301F045FD4FF0EF
:1052C000874101F04BFE804602F024F801F0F2FD28
:1052D000014604464046069401F036FD4FF08741F2
:1052E00001F03CFE0021079001F0CCFF002800F007
:1052F000CB802046002101F0C5FF002814BF012308
:1053000002237F4A019202213A46009105A82946CC
:1053100000F01CFA002E07460DDA95E80C0002F1A9
:10532000004203F1004347422A606B6003E0002221
:1053300008604A600027384609B0BDE8F08F014692
:1053400001F002FD002768602860F4E76D4901F074
:10535000FBFC6D49044601F0F7FC0146286020463D
:1053600001F0F2FC684901F0EFFC01276860E2E718
:1053700000F090FF6549804601F0F0FD4FF07C5150
:1053800001F0E4FC01F0C6FF074601F093FD584927
:10539000834601F0E3FD0146404601F0D5FC564945
:1053A0008146584601F0DAFD1F2F824621DC584A1B
:1053B000791E24F0FF0352F82120934219D0514660
:1053C000484601F0C1FC8046C5F800804146484689
:1053D00001F0BAFC514601F0B7FC002E6860AADA71
:1053E00008F1004800F10040C5F8008068607F4285
:1053F000A1E75146484601F0A7FCE215C0F3C753A8
:10540000D31A082B8046DFDD3E490392584601F04F
:10541000A5FD80460146484601F096FC014604463B
:10542000484601F091FC414601F08EFC3649804629
:10543000584601F093FD414601F086FC0146824644
:10544000204601F081FC039AC0F3C753D21A192AEF
:1054500080462EDC2860A146B8E701F077FC254B9A
:1054600024F00F049C42064610D0234901F06EFC44
:1054700001462860304601F067FC1F4901F066FCD8
:105480004FF0FF37686056E703233AE71D4901F004
:105490005DFC1D49044601F059FC01462860204688
:1054A00001F052FC184901F051FC4FF0FF376860E1
:1054B00041E71849584601F051FD01468046204613
:1054C00001F042FC01468146204601F03DFC414688
:1054D00001F03AFC10490446584601F03FFD2146D0
:1054E00001F032FC82466AE7D80F493FE3CB164011
:1054F000800FC93FD00FC93F43443537800F494320
:1055000044C440000044353708A3852E84F9223F67
:10551000C4C3400000A3852E32318D2420F0004208
:10552000B2F1FF4FF8B504462ED262B3002803460D
:105530003DDBB2F5000F4FEAE0502CD37F38C3F3C8
:10554000160343F40003C20748BF5B000026471060
:105550005B00314619244FF080728D189D4202DCA9
:105560005B1BA9181644013C4FEA43034FEA520261
:10557000F3D113B1013626F00106701000F17C5012
:1055800000EBC750F8BDF8BD014601F0E7FC21462D
:1055900001F0DCFBF8BD14F4000201D00EE00A4675
:1055A0005B001C0202F10101F9D5801AC6E7014631
:1055B00001F0CAFB014601F085FDF8BD4FF0FF3256
:1055C000F3E700BF2DE9F84320F00044B4F1485F51
:1055D00006460F4649DA01F09DFE002800F09D8046
:1055E0003146304601F0BAFC4E49054601F0B6FCA2
:1055F0004D4901F0ABFB294601F0B0FC4B4901F0ED
:10560000A3FB294601F0AAFC494901F09FFB29466A
:1056100001F0A4FC474901F097FB294601F09EFCEC
:10562000454901F093FB294601F098FC80464FF074
:105630007C51284601F092FC41460446284601F080
:105640008DFC39460546304601F088FC0146284667
:1056500001F07AFB0146204601F076FB01464FF04F
:105660007E5001F071FBBDE8F883014601F076FC45
:105670002C49054601F072FC2B4901F067FB2946D5
:1056800001F06CFC294901F05FFB294601F066FC42
:10569000274901F05BFB294601F060FC254901F038
:1056A00053FB294601F05AFC234901F04FFB2946E0
:1056B00001F054FC214B9C428046B8DD204B9C42BB
:1056C00027DC04F17F4421464FF07E5001F03CFB83
:1056D00081464FF07C51284601F040FC214601F004
:1056E00033FB41460446284601F038FC394605465E
:1056F000304601F033FC0146284601F025FB014607
:10570000204601F021FB0146484601F01DFBBDE8A3
:10571000F883DFF834900B4CDBE74FF07E50BDE8A8
:10572000F88300BF4ED747ADF6740F317CF2933447
:10573000010DD037610BB63AABAA2A3D9999993E33
:105740000000483F0000903E0000383F2DE9F04F38
:10575000DDB0904C0893013B0193D31E48BF131D4D
:10576000669D0791DB1023EAE37354F82540099303
:1057700019460133A2EBC3030594019A0493059BD8
:1057800002909C18A1EB020617D434440025013482
:105790001FAFDDF89C8108E058F8260001F08AFB75
:1057A0000136A64247F8040F07D0002EF4DA01367E
:1057B0002846A64247F8040FF7D1059B002B28DBAB
:1057C000089B9E00029B351F1D4420AB1E44059B79
:1057D00048AA4FF0000902EB830847AF019B002B5A
:1057E000C0F2B982029BB3461C1FCA465BF8041D77
:1057F00054F8040F01F0B2FB0146504601F0A6FA3E
:10580000AC428246F2D147F804AF474506F10406A0
:10581000E4D105980899029C6FF040420346134476
:105820009B000A440DF1300A191F04EB8205534412
:105830000AEB01020A920B9380464FEA88035CAAA6
:105840000393D318B8F1000F53F8509C22DD02EBFC
:105850008804543C0BAE47AF4FF06E51484601F000
:105860007DFB01F057FD01F025FB4FF0874183469A
:1058700001F074FB0146484601F066FA01F04AFD6A
:1058800054F8041946F8040F584601F05FFABC4278
:105890008146E1D1049E4846314600F051FD4FF06B
:1058A0007851044601F05AFB00F000FD4FF08241B0
:1058B00001F054FB0146204601F046FA044601F08F
:1058C00029FD8146069001F0F5FA0146204601F0D7
:1058D0003BFA002E074640F3E68008F1FF31C6F19F
:1058E00008035AF8212042FA03F000FA03F3D31A0E
:1058F0004A46C6F1070402444AF82130069243FAA8
:1059000004F4002C5BDD069BB8F1000F03F10103EA
:10591000069340F33B82DAF80060002E40F0948258
:10592000B8F1010F40F355825246012352F8046F3B
:10593000002E00F04A82591CC6F5807688454AF848
:10594000236014DD5AF821200233C2F1FF0298458A
:105950004AF821200BDD039A52440AEB8303914657
:105960001A68C2F1FF0243F8042B4B45F8D1049B9F
:10597000002B11DD049B012B4FF0010640F00E823D
:1059800008F1FF325AF8223003F07F034AF8223040
:105990000EE200BF88C74000022C10D139464FF0FC
:1059A0007E5001F0D1F9074604994FF07E5000F087
:1059B000C7FC0146384601F0C7F90224074600211A
:1059C000384601F05FFC002800F08380059B08F159
:1059D000FF37BB420FDC08F18043013B0B980AEB19
:1059E0008303002253F80419834242EA0102F9D1E9
:1059F000002A40F09D80059B013B5AF82330002B84
:105A000040F0F4810A9A012352F804190133002965
:105A1000FAD043441A46069308F10103934237DC57
:105A20000899099A01EB080720A901EB8707069955
:105A30009E1801EB020906F18046679A013E02EBCF
:105A4000860648AA02EB8308679B03EB890303934E
:105A500056F8040F01F02EFA019B47F8040B002BB7
:105A600019DB029BBB461C1F4FF000095BF8041DAD
:105A700054F8040F01F072FA0146484601F066F945
:105A8000AC428146F2D1039B48F8049B9E42DFD191
:105A9000DDF81880D1E6039B4FF000099E4248F8DC
:105AA000049BD5D1F4E705D108F1FF335AF8234020
:105AB000241226E74FF07C5101F002FC002840F050
:105AC000538104460021384601F0DCFB00287FF4B6
:105AD0007DAF049E3846714200F032FC4FF08741A2
