:020000040040BA
:10000000B0874020B9294000692A4000692A400091
:10001000692A4000692A4000692A40000000000067
:10002000000000000000000000000000692A4000FD
:10003000692A400000000000692A4000692A400047
:10004000692A4000692A4000692A4000692A400064
:10005000692A4000692A4000692A4000692A400054
:10006000692A4000000000002D2240004522400087
:100070005D224000692A4000692A4000692A400048
:10008000752240008D224000692A4000692A400004
:10009000692A4000692A4000692A4000D5094000C9
:1000A000692A4000692A4000692A4000692A400004
:1000B000692A4000D91F4000692A4000692A40008F
:1000C000692A4000692A4000692A4000692A4000E4
:1000D00000000000692A400000000000692A40007A
:1000E000F11F4000692A4000692A4000692A400047
:1000F000692A4000692A4000692A4000692A4000B4
:10010000692A4000692A4000692A4000692A4000A3
:10011000692A40000000000000000000000000000C
:10012000692A4000692A4000692A4000692A400083
:10013000692A400000000000692A4000692A400046
:1001400010B5054C237833B9044B13B10448AFF311
:1001500000800123237010BD6408402000000000CF
:10016000C84A40000C4B43B10C480D4910B5AFF3E1
:1001700000800C48036823B910BD0A48036833B9EE
:100180007047094B002BF7D0BDE810401847064BCD
:10019000002BF5D0184700BF00000000C84A4000FF
:1001A00068084020C84A40000000000080B483B0C6
:1001B00000AF78607B6801221A6000BF0C37BD4633
:1001C0005DF8047B704780B483B000AF78607B68D3
:1001D0001B6B18460C37BD465DF8047B704780B436
:1001E00085B000AFF860B9607A60FA687B68063362
:1001F0009B001344BA685A6000BF1437BD465DF8CF
:10020000047B704780B483B000AF786039603B688E
:10021000012B01D9012305E001223B689A407B684C
:100220001A61002318460C37BD465DF8047B704701
:1002300080B588B000AFF860B9607A600023FB61D8
:10024000FB68002B05D0BB68002B02D07B68002B1D
:1002500003D14FF0FF33FB6134E0FB689A68FB6821
:10026000DB68D21A7B689A4203DA4FF0FF33FB61F6
:1002700028E0FB681B791A46FB689B6803FB02F2C7
:10028000FB68DB681344BB61FB681B687B61BB696F
:100290007A6913447A68B96818460D4B9847FB6829
:1002A000DA687B681A44FB68DA60FB68DA68FB6826
:1002B0009B689A42ACBF01230023DAB2FB681A752F
:1002C0000023FB61FB6918462037BD4680BD00BF97
:1002D000992D400080B588B000AFF860B9607A60B1
:1002E0000023FB61FB68002B05D0BB68002B02D00C
:1002F0007B68002B03D14FF0FF33FB6129E0FB68E3
:100300009A68FB681B69D21A7B689A4203DA4FF03D
:10031000FF33FB611DE0FB685B791A46FB689B6855
:1003200003FB02F2FB681B691344BB61FB681B689B
:100330007B61BB697A6913447A681946B868074BD0
:100340009847FB681A697B681A44FB681A610023A6
:10035000FB61FB6918462037BD4680BD992D4000E2
:1003600080B485B000AF78600B46FB707B68002BD3
:1003700005D07B681B7D002B01D0012300E000230A
:10038000FB73FB78002B26D07B68002B23D0FB7BF4
:10039000002B20D07B6800221A757B681A797B6855
:1003A0005B795340DAB27B681A717B685A797B6853
:1003B0001B795340DAB27B685A717B681A797B6883
:1003C0005B795340DAB27B681A717B6800221A614C
:1003D0007B680022DA60FB7B18461437BD465DF867
:1003E000047B704780B483B000AF78600B467B809D
:1003F00000BF0C37BD465DF8047B704780B485B004
:1004000000AF78600B46FB707B685B68FB60FB7835
:10041000FF2B04D1FB6843F08003FB6007E0FB681F
:1004200023F08F03FB60FB78FA681343FB607B6863
:10043000FA685A6000BF1437BD465DF8047B704708
:1004400080B582B000AF78600B467B807B8840F639
:10045000FF72934204D07B88194678680A4B98470C
:100460007B8840F6FF72934205D07B88012202FA16
:1004700003F31A4601E040F6FF727B685A6100BF41
:100480000837BD4680BD00BFE503400080B582B09F
:1004900000AF78600B467B807B8819467868054BF7
:1004A00098477A887B685A667B689B6E184608373F
:1004B000BD4680BDE503400080B582B000AF7860E6
:1004C0000B467B8013463B807B8819467868074B38
:1004D00098477A887B685A663B88C3F30B027B682F
:1004E000DA6600BF0837BD4680BD00BFE5034000A7
:1004F00080B483B000AF78607B68072B25D801A259
:1005000052F823F0250540002B054000310540003E
:10051000370540003B0540003F05400043054000D3
:10052000470540004FF4FA4310E04FF400430DE05C
:100530004FF400430AE0084B08E0084B06E0084B84
:1005400004E0074B02E0064B00E0002318460C379E
:10055000BD465DF8047B704700093D0000127A003B
:10056000001BB70080B500AF0620054B9847024638
:1005700013469B0013449A001344184680BD00BFE5
:10058000F104400080B500AF024B9847034618467F
:1005900080BD00BF6505400080B500AF024B9847A5
:1005A00003465B08184680BD6505400080B582B0F3
:1005B00000AF78607868034B984700BF0837BD46A6
:1005C00080BD00BF6925400080B500AF0A20084B00
:1005D00098470B20064B98470C20054B9847102056
:1005E000034B98471120024B984700BF80BD00BFC6
:1005F000AD05400080B58CB000AF78603960494BE4
:10060000984703467B623B681B68BB623B689B68FC
:10061000FB623B681B68FB603B685B683B613B6857
:100620009B687B613B68DB68BB610023FB617B6887
:100630003D4A934208D107203C4B984707F12403D9
:10064000194678683A4B98477B683A4A934208D1F2
:100650000820364B984707F1240319467868344B35
:1006600098477B68344A934208D12C202F4B9847F7
:1006700007F12403194678682D4B98477B682F4A69
:10068000934208D12D20294B984707F1240319469E
:100690007868274B98477B68294A934211D10D20EF
:1006A000224B98471F4B9847024607F10C03194607
:1006B0007868244B98477868234B98477868234B91
:1006C00098477B68224A934211D10E20174B9847D6
:1006D000144B9847024607F10C0319467868194BEA
:1006E00098477868184B98477868184B98477B6804
:1006F000184A934211D10F200C4B9847094B984749
:10070000024607F10C03194678680E4B9847786843
:100710000D4B984778680D4B984700BF3037BD4662
:1007200080BD00BF9905400000080E40AD054000A7
:10073000ED254000000A0E40001A0E40001C0E403D
:100740000040024085274000092840003D28400025
:100750000080024000C0024080B582B000AF7860E7
:100760000B46FB707B68364A93420AD100BFFB7888
:1007700019467868334B98470346002BF7D101237D
:100780005AE07B68304A93420AD100BFFB78194691
:1007900078682C4B98470346002BF7D101234BE098
:1007A0007B682A4A93420AD100BFFB7819467868D1
:1007B000244B98470346002BF7D101233CE07B688C
:1007C000234A93420AD100BFFB78194678681D4B33
:1007D00098470346002BF7D101232DE07B681D4A83
:1007E00093420AD100BFFB78194678681A4B9847A4
:1007F0000346002BF7D101231EE07B68174A934282
:100800000AD100BFFB7819467868134B9847034616
:10081000002BF7D101230FE07B68114A93420AD1E4
:1008200000BFFB78194678680B4B98470346002BAE
:10083000F7D1012300E0002318460837BD4680BDEC
:1008400000080E4045264000000A0E40001A0E40E7
:10085000001C0E4000400240A928400000800240D9
:1008600000C0024080B584B000AF786039600023DA
:10087000FB607B68344A934207D100BF39687868CF
:10088000324B98470346002BF8D17B68304A93429D
:1008900007D100BF396878682C4B98470346002B76
:1008A000F8D17B682B4A934207D100BF396878683A
:1008B000264B98470346002BF8D17B68264A934283
:1008C00007D100BF39687868204B98470346002B52
:1008D000F8D17B68214A93420DD100BF07F10C0388
:1008E000194678681E4B98470346002BF6D1FB68E3
:1008F000DAB23B681A707B681A4A93420DD100BF86
:1009000007F10C0319467868154B98470346002BEE
:10091000F6D1FB68DAB23B681A707B68124A9342E0
:100920000DD100BF07F10C03194678680C4B9847AE
:100930000346002BF6D1FB68DAB23B681A7000BFA1
:100940001037BD4680BD00BF00080E407526400030
:10095000000A0E40001A0E40001C0E4000400240EB
:10096000DB2840000080024000C0024080B582B019
:1009700000AF786039600F4A7B6813600E4B0F4AF6
:100980001A600F4B0F4A1A60396878680E4B984707
:100990000E4B1B689B68002118460D4B98470B4B6C
:1009A0001B685B6800211846094B984700BF083751
:1009B000BD4680BD046740200067402059074000C5
:1009C000FC66402065084000F505400024004020FA
:1009D0001530400080B582B000AF00210448054BBF
:1009E000984703467B607B6800BF0837BD4680BDE3
:1009F00000C00040D90D400080B500AF002128485C
:100A0000284B98470246284B1A604FF400624FF07B
:100A100020512648264B98470346002B10D1224BE5
:100A20001B6807EE903AB8EE677A224BD3ED007A56
:100A300067EE277AFDEEE77A17EE902A1A4B1A60D6
:100A400000211D481D4B98470346002B03D0012170
:100A500019481A4B9847042213491748184B9847CE
:100A6000042218491448184B98471848184B9847BF
:100A7000114B1B79002B08D1124B1B681B0900225C
:100A800019461248134B984707E00E4B1B689B080A
:100A9000002219460D480F4B984700BF80BD00BF8C
:100AA00000C003408D04400044664020000E0E400C
:100AB00065204000180040200000402061034000F5
:100AC0003102400040664020D50240000000044052
:100AD000C7014000DF01400090B585B000AF084B72
:100AE0003C460FCB84E80F000E20064B98473B4650
:100AF00019460548054B984700BF1437BD4690BDC1
:100B00002C4A4000AD054000008002406D094000C5
:100B100090B58BB000AF2148214B984707F11003E7
:100B20001846204B984707F1100319461B481E4BE7
:100B30009847032119481D4B9847184A174B5B6883
:100B400043F0030353600123194A00211348194C51
:100B5000A04707F10C031846174B984700237B73F7
:100B600007F10C031A4600210C48144B98474FF428
:100B7000007200210948124B98473B1D1846114B43
:100B800098473B1D194605480F4B984700210348DD
:100B90000E4B984700BF2C37BD4690BD00C00340A8
:100BA00009204000991C4000491D4000FD03400001
:100BB000F9094000E11D4000F91C4000BD1B400048
:100BC000B9044000191D4000511C40004104400080
:100BD00080B500AF1E20054B98470548054B984748
:100BE00000210348044B984700BF80BDAD0540007D
:100BF00000000440AD0140000502400090B58BB0FC
:100C000002AFF860B9607A603B601F4B9847F861AB
:100C1000BB6818461D4B9847386807F1140107F167
:100C20001802FB6900930B46F969194CA047012390
:100C30007B6179687B6943F41C231A46F868154B7D
:100C400098477968BB69FA69B2FBF3F23B68B2FB7B
:100C5000F3F3DB081A46F8680F4B98477968BB69CD
:100C6000FA69B2FBF3F23B68B2FBF3F31B091A46D5
:100C7000F8680A4B98477B681946F868084B98470C
:100C800000BF2437BD4690BD850540006925400062
:100C9000FD0D4000310D4000B30D40008D0D4000B2
:100CA0006B0D400080B500AF0A20054B9847092224
:100CB0004FF400610348044B984700BF80BD00BF5C
:100CC00069254000000E0E40AD20400098B500AFF1
:100CD0000B4B98470B4B98470B4B98470B4B984740
:100CE0000B4B98470B480C4B98470C4B98470C4BB9
:100CF000002217210B480C4CA0470C4B9847FEE7ED
:100D0000A5114000C905400075174000D90A4000F0
:100D1000110B40003C4A400005304000A50C40004B
:100D2000A086010000C00040FD0B4000D10B400038
:100D300080B487B000AFF860B9607A60FA68BB68C9
:100D40009B0113447B617B6902221A607B694FF02F
:100D5000FF329A627B691B6A7B697A685A6000BFBE
:100D60001C37BD465DF8047B704780B483B000AF8C
:100D7000786039607A683B689B01134405221A60E9
:100D800000BF0C37BD465DF8047B704780B485B06A
:100D900000AFF860B9607A60FA68BB689B011344E1
:100DA00014337A681A6000BF1437BD465DF8047BBF
:100DB000704780B485B000AFF860B9607A60FA68B7
:100DC000BB689B0113441C337A681A6000BF143758
:100DD000BD465DF8047B704780B485B000AF786095
:100DE00039607A683B689B011344FB60FB681B6AAF
:100DF00018461437BD465DF8047B704780B48DB04B
:100E000000AFF860B9607A603B6002233B61082361
:100E10007B612023BB618023FB61BB6BDB0B3B62EF
:100E20000023FB621AE0FB6A9B0007F130021344C7
:100E300053F8203CBA68B2FBF3F3BB62BB6A1B0CED
:100E40007B62FA68BB6A9A4201D9002323E0FA6800
:100E50007B6A9A4206D2FB6A0133FB62FB6A042B6F
:100E6000E1D900E000BFFB6A042B01D9002312E0A6
:100E70007B68002B08D0FB6A9B0007F1300213440B
:100E800053F8202C7B681A603B68002B02D03B682B
:100E9000FA6A1A60012318463437BD465DF8047BB0
:100EA0007047000080B582B000AF78607B68072B88
:100EB00031D801A252F823F0150F4000D90E40009E
:100EC000E10E4000E90E4000F10E4000F90E400036
:100ED000010F40000B0F40000020114B98471AE013
:100EE00001200F4B984716E000200E4B984712E068
:100EF00010200C4B98470EE020200A4B98470AE040
:100F00003E210020084B984705E03E210120064B7A
:100F1000984700E000BF00BF0837BD4680BD00BF56
:100F2000A5234000112440008124400080B582B0F8
:100F300000AF78607B68072B26D801A252F823F017
:100F4000610F4000650F4000650F4000770F4000C3
:100F5000770F4000770F4000770F4000770F400079
:100F6000012312E00B4B98470346002B14BF0123CB
:100F70000023DBB209E0084B98470346002B14BF5F
:100F800001230023DBB200E0002318460837BD46EA
:100F900080BD00BFDD234000F924400080B483B051
:100FA00000AF78607B68072B25D801A252F823F0A8
:100FB000D10F4000D70F4000DD0F4000E30F40008D
:100FC000E70F4000EB0F4000EF0F4000F30F400031
:100FD0004FF4FA4310E04FF400430DE04FF40043A8
:100FE0000AE0084B08E0084B06E0084B04E0074B1A
:100FF00002E0064B00E0002318460C37BD465DF8C2
:10100000047B704700093D0000127A00001BB70006
:1010100080B582B000AF0346FB7100BFFB79184674
:10102000054B9847034683F00103DBB2002BF5D153
:1010300000BF0837BD4680BD2D0F400080B586B08B
:1010400000AFF8607A603B600B46FB727B68002B58
:1010500007D13B68002B04D1FB684FF470021A6083
:1010600019E0FB7A18460E4B984702467B68B2FBA4
:10107000F3F37B617B693A6802FB03F37B613B68B6
:10108000013B1A04074B13407A68D2B2134343F46E
:101090007C52FB681A6000BF1837BD4680BD00BF98
:1010A0009D0F40000000FF0780B582B000AF786060
:1010B00039603B68002B08D1094B9847094A7B6887
:1010C0001B6843F00053936205E0064A7B681B6887
:1010D00043F48033D36100BF0837BD4680BD00BFF5
:1010E0001525400000060E4080B582B000AF786044
:1010F0007B68002B03D1054B9847034602E0044B65
:101100009847034618460837BD4680BD3125400044
:101110004D25400080B582B000AF0346FB71FB79DE
:10112000033B042B08D8FB791846064B9847FB79FC
:101130001846054B984700E000BF00BF0837BD4682
:1011400080BD00BFA50E40001110400080B582B0E8
:1011500000AF786000BF7868044B98470346002BC7
:10116000F9D0002318460837BD4680BDE91040007D
:1011700080B500AF0620054B9847024613469B00FA
:1011800013449A001344184680BD00BF9D0F4000D1
:1011900080B500AF024B98470346184680BD00BF9C
:1011A0007111400090B583B000AF1348134B9847BE
:1011B0000620134B9847381D192301220621114C94
:1011C000A0473B1D002118460F4B984700200F4BAE
:1011D000984702200E4B984700200E4B98470E4B25
:1011E00098470E4B984703461846044B984700BF54
:1011F0000C37BD4690BD00BF00A3E111D92B4000C4
:10120000151140003D104000A91040004D11400054
:10121000A522400021234000712A40009111400086
:1012200080B586B000AFF860B9607A6000237B615A
:10123000FB68002B12D04FF0FF3313E00B4B1B6801
:101240000B4A1268B96810469847BB680133BB6007
:101250007B6901337B617B68013B7B607B68002B92
:10126000ECDC7B6918461837BD4680BDFC66402023
:101270000467402080B586B000AFF860B9607A603E
:1012800000237B61FB68012B1ED0FB68022B1BD067
:10129000FB68032B18D04FF0FF3319E00E4B1A6890
:1012A0000E4B1868BB68591CB9601B7819469047EB
:1012B0000346002B02DA4FF0FF3309E07B6901336C
:1012C0007B617B68013B7B607B68002BE6D17B699F
:1012D00018461837BD4680BD00674020046740208F
:1012E00080B400AFBFF34F8FBFF36F8F094B002265
:1012F000C3F85022074A074B5B6943F4003353613C
:10130000BFF34F8FBFF36F8F00BFBD465DF8047B07
:10131000704700BF00ED00E080B48BB000AF264BFB
:10132000D3F88030FB61FB695B0BC3F30E037B6278
:10133000FB6903F007030433BB61FB69DB08C3F3FC
:1013400009037B617B69BB60BB68B3FA83F37B6095
:101350007B68DBB203F01F033B61BFF34F8F7B69F8
:101360003B623A6A3B6902FA03F319467A6ABB693F
:1013700002FA03F30B43FB600F4AFB68C2F86032CA
:101380003B6A5A1E3A62002BEBD17B6A5A1E7A6284
:10139000002BE4D1BFF34F8F074A074B5B6943F43F
:1013A00080335361BFF34F8FBFF36F8F00BF2C3774
:1013B000BD465DF8047B704700ED00E080B582B06B
:1013C00000AF78607868034B984700BF0837BD4688
:1013D00080BD00BF6925400080B500AF0A20084BE2
:1013E00098470B20064B98470C20054B9847102038
:1013F000034B98471120024B984700BF80BD00BFA8
:10140000BD13400080B489B000AF78607B68FB6199
:10141000FB69BB61BB695A09FB697B617B6903F0AE
:101420001F03012101FA03F33A61FB603B69BB60D2
:10143000BA68064B13445B021A46FB68536000BF50
:101440002437BD465DF8047B704700BF07072000C6
:1014500080B48DB000AF786039607B68FB623B6818
:10146000BB62FB6A7B627B6A5A09FB6A3B623B6A2E
:1014700003F01F03012101FA03F3FA61BB61BB6AA8
:101480007B61FB693B613A69374B13445B02FB604C
:101490007B6903F00803002B03D0FB68BA695A6626
:1014A00002E0FB68BA691A667B6903F01003002B3F
:1014B00004D0FB68BA69C3F8942003E0FB68BA69FA
:1014C000C3F890207B6903F02003002B03D0FB6856
:1014D000BA691A6502E0FB68BA695A657B6903F06C
:1014E000C003002B03D0FB68BA691A6202E0FB68F4
:1014F000BA695A627B6903F08003002B04D0FB6851
:10150000BA69C3F8842003E0FB68BA69C3F8802095
:101510007B6903F00103002B06D0FB681A6FBB69DF
:101520001A43FB681A6706E0FB681A6FBB69DB4366
:101530001A40FB681A677B6903F00203002B06D090
:10154000FB685A6FBB691A43FB685A6706E0FB6881
:101550005A6FBB69DB431A40FB685A6700BF3437D8
:10156000BD465DF8047B70470707200080B48DB04E
:1015700000AF78600B46FB707B68FB62FB7887F8F6
:101580002B30FB6A7B627B6A3B623B6A5B09FB61D7
:10159000FA69174B13445B02BB6197F82B30012BA0
:1015A00009D1FB6A7B617B6903F01F0301229A402A
:1015B000BB691A610CE097F82B30002B08D1FB6A4D
:1015C0003B613B6903F01F0301229A40BB695A61EA
:1015D000FB6AFB60FB6803F01F0301229A40BB69B2
:1015E000C3F8A02000BF3437BD465DF8047B7047C8
:1015F0000707200080B48BB000AF78600B46FB700B
:101600007B687B62FB7887F823307B6AFB61FB6930
:10161000BB61BB695B097B617A69104B13445B0258
:101620003B6197F82330002B09D07B6AFB60FB6895
:1016300003F01F0301229A403B691A6308E07B6AAA
:10164000BB60BB6803F01F0301229A403B695A63E9
:1016500000BF2C37BD465DF8047B704707072000AC
:1016600080B48DB000AF78600B46FB707B68FB6286
:10167000FB7887F82B30FB6A7B627B6A5A09FB6A2E
:101680003B623B6A03F01F03012101FA03F3FA6195
:10169000BB6197F82B30FB75FB693B613A69234BC3
:1016A00013445B02FB60FB7D013B032B2ED801A2A0
:1016B00052F823F0E9164000FB164000C516400022
:1016C000D7164000FB68BA69C3F8C420FB68BA6942
:1016D000C3F8D0201FE0FB68BA69C3F8C420FB68D8
:1016E000BA69C3F8D42016E0FB68BA69C3F8C02011
:1016F000FB68BA69C3F8D0200DE0FB68BA69C3F88B
:10170000C020FB68BA69C3F8D42004E0FB68BA695A
:10171000C3F8B42003E0FB68BA69C3F8B02000BF87
:101720003437BD465DF8047B704700BF07072000D3
:1017300080B400AFBFF34F8FBFF36F8F0C4A0C4BD9
:10174000D3F8903223F00103C2F89032084A084BD4
:10175000D3F8943223F00103C2F89432BFF34F8FD1
:10176000BFF36F8F00BFBD465DF8047B704700BFBD
:1017700000ED00E080B500AF1E4B4FF400425A6010
:101780001D4B98471D4B98471D4B1E4A5A601C4BDA
:101790001D4A5A601D4B98471D4B98470121482010
:1017A0001C4B9847012148201B4B984700210B20D8
:1017B000184B984788210B20184B984702210B2083
:1017C000174B984700211520144B98471520154BAF
:1017D0009847154A144BD3F8143143F01003C2F85C
:1017E0001431032124200D4B984724200D4B98479A
:1017F00000BF80BD50180E40E11240001913400098
:10180000000C0E400C08005A0C07005A311740001B
:10181000D91340006D154000F515400051144000EB
:1018200061164000051440000080084080B483B079
:1018300000AF0346FB71094997F907305B09FA7954
:1018400002F01F02012000FA02F241F8232000BF3B
:101850000C37BD465DF8047B704700BF00E100E037
:1018600080B483B000AF0346FB71094997F9073094
:101870005B09FA7902F01F02012000FA02F26033DC
:1018800041F8232000BF0C37BD465DF8047B70474C
:1018900000E100E080B483B000AF03463960FB7123
:1018A00097F90730002B0BDA0D49FB7903F00F0392
:1018B000043B3A68D2B25201D2B20B441A7609E024
:1018C000084997F907303A68D2B25201D2B20B44B4
:1018D00083F8002300BF0C37BD465DF8047B7047DA
:1018E00000ED00E000E100E080B483B000AFEFF372
:1018F00010837B607B68002B0CBF01230023DBB2CD
:101900003B6072B6BFF35F8F044B00221A703B68D6
:1019100018460C37BD465DF8047B70471C0040201C
:1019200080B483B000AF78607B68002B14BF0123C4
:101930000023DBB218460C37BD465DF8047B7047C8
:1019400080B582B000AF78607868074B984703464F
:10195000002B05D0054B01221A70BFF35F8F62B6D2
:1019600000BF0837BD4680BD211940001C00402043
:1019700080B483B000AF78600B467B8000BF0C372B
:10198000BD465DF8047B704780B483B000AF7860DB
:101990007B681B6B18460C37BD465DF8047B7047AF
:1019A00080B483B000AF78607B68DB6A18460C3780
:1019B000BD465DF8047B704780B584B000AF034638
:1019C000FB71FB790A4AD35CFF2B00D1FEE7094B80
:1019D0009847F860FB79064AD25C0132D1B2044ADA
:1019E000D154F868044B984700BF1037BD4680BDFE
:1019F000F4664020E91840004119400080B483B0EB
:101A000000AF78607B68072B25D801A252F823F03D
:101A1000311A4000371A40003D1A4000431A400076
:101A2000471A40004B1A40004F1A4000531A40001A
:101A30004FF4FA4310E04FF400430DE04FF400433D
:101A40000AE0084B08E0084B06E0084B04E0074BAF
:101A500002E0064B00E0002318460C37BD465DF857
:101A6000047B704700093D0000127A00001BB7009C
:101A700080B500AF0620054B9847024613469B00F1
:101A800013449A001344184680BD00BFFD1940005E
:101A900080B500AF024B98470346184680BD00BF93
:101AA000711A400080B483B000AF78607B68094A47
:101AB000934201D1012306E07B68074A934201D19A
:101AC000002300E0002318460C37BD465DF8047B78
:101AD000704700BF0040064000C0034080B483B0A0
:101AE00000AF78607B68094A934201D1282306E061
:101AF0007B68074A934201D11D2300E01D2318464D
:101B00000C37BD465DF8047B704700BF00400640BF
:101B100000C0034080B485B000AF78603960002316
:101B2000FB603B68DB7C002B02D04FF0004200E002
:101B300000223B6859683B689B68B1FBF3F3013BAB
:101B40001B029BB21A433B681B7C1B0603F07063AD
:101B50001A433B685B7C1B0703F040531A433B6806
:101B6000DB68134343F40003FB607B68FA685A6048
:101B70003B681B7D002B02D04FF0807200E00022FA
:101B80003B681B681A433B685B7D002B02D04FF01B
:101B9000007300E000231A437B689A603B689B7DDA
:101BA0001B0203F4407343F00C027B68C3F89420DB
:101BB00000BF1437BD465DF8047B704780B586B022
:101BC00000AFF8600B467A607B817B891946F86824
:101BD0001E4B984700237B61FB681B6E7B617B89F2
:101BE000012202FA03F3DB437A6913407B617B68CD
:101BF0001B78002B04D07B89012202FA03F300E05A
:101C000000237A6913437B61FB687A691A66FB6873
:101C10005B6D7B617B895B00032202FA03F3DB438C
:101C20007A6913407B617B685B781A467B895B002D
:101C300002FA03F31A467B6913437B61FB687A69F6
:101C40005A6500BF1837BD4680BD00BF71194000FE
:101C500080B485B000AF786039600023FB603B68DA
:101C60001B78002B01D0012300E000233A68527852
:101C70001343FB607B68FA681A673B685B881A4607
:101C80003B689B881B041A437B685A6700BF143764
:101C9000BD465DF8047B704780B582B000AF7860C8
:101CA0007B6800221A60124B984702467B685A6094
:101CB0007B68104A9A607B684FF48022DA607B6808
:101CC00002221A747B6801225A747B6801229A747A
:101CD0007B680022DA747B6801221A757B68012216
:101CE0005A757B6801229A7500BF0837BD4680BDD2
:101CF000911A4000808D5B0080B483B000AF7860A3
:101D00007B6800221A707B6801225A7000BF0C3772
:101D1000BD465DF8047B704780B483B000AF786047
:101D20007B6800221A707B6820225A707B68FF2231
:101D30005A807B6840F6FF729A8000BF0C37BD4620
:101D40005DF8047B7047000080B584B000AF786018
:101D5000396078681D4B9847034603F08073B3F1F0
:101D6000807F01D119232CE07B6801221A60396839
:101D70007868174B98477B68164A93420DD1002329
:101D8000FB6007E0144AFB68002142F82310FB685F
:101D90000133FB60FB680F2BF4D97B680F4A934239
:101DA0000ED10023FB6008E00B4AFB6810330021D2
:101DB00042F82310FB680133FB60FB680F2BF3D95B
:101DC000002318461037BD4680BD00BF891940006A
:101DD000151B400000C0034008674020004006403B
:101DE00080B586B000AFF860B9607A60FB70F868C3
:101DF000174B9847786117497B691A01BB681344F0
:101E00007A6841F823207B69002B0BD11D20124BEF
:101E10009847FB7819461D20104B98471D20104B02
:101E200098470DE07B69012B0AD128200A4B98477F
:101E3000FB7819462820094B98472820084B9847DB
:101E4000B968F868074B984700BF1837BD4680BD92
:101E5000A51A40000867402061184000951840000E
:101E60002D184000691E400080B483B000AF786038
:101E700039603B68194A934203D17B68174A5A621A
:101E800026E03B680B2B0FD83B680B2B04D17B68FB
:101E90004FF400625A621BE001223B6802FA03F32E
:101EA0001A467B685A6213E03B680E2B08D83B68E1
:101EB0000C33012202FA03F31A467B685A6207E0E8
:101EC0003B680F33012202FA03F31A467B685A6219
:101ED0000C37BD465DF8047B704700BFFF0F00471D
:101EE00080B582B000AF03463960FB71FB790A49C7
:101EF0001A013B68134451F82330002B07D0FB79BB
:101F000005491A013B68134451F82330984700BF34
:101F10000837BD4680BD00BF0867402090B587B038
:101F200000AF78607868284B984704467868274B5C
:101F3000984703462340FB607868254B98473861F3
:101F400000237B6139E07B690B2B0FD801227B6971
:101F500002FA03F31A46FB681340002B2AD03B69B0
:101F6000DBB2796918461B4B984723E07B690E2B3F
:101F700010D87B690C33012202FA03F31A46FB687E
:101F80001340002B16D03B69DBB279691846114B20
:101F900098470FE07B690F33012202FA03F31A46D8
:101FA000FB681340002B05D03B69DBB2796918460A
:101FB000084B98477B6901337B617B690F2BC2D942
:101FC00000BF1C37BD4690BD89194000A1194000D3
:101FD000A51A4000E11E400080B500AF0248034B47
:101FE000984700BF80BD00BF00C003401D1F4000D8
:101FF00080B500AF0248034B984700BF80BD00BFCB
:10200000004006401D1F400080B584B000AF7860DE
:102010007868064B9847F860F868054B98470220A7
:10202000044B984700BF1037BD4680BDDD1A400005
:1020300069254000B919400080B485B000AFF86050
:10204000B9607A607B68002B03D0FB68BA685A6677
:1020500002E0FB68BA681A6600BF1437BD465DF837
:10206000047B704780B487B000AFF860B9607A60D5
:10207000BB68B3F1405F03D0BB68B3F1605F03D1CD
:10208000FB689B6B7B6102E0FB68DB6B7B617A69C1
:102090007B681340002B01D1002300E00123184688
:1020A0001C37BD465DF8047B7047000080B584B0E6
:1020B00000AFF860B9607A60B968F868194B984762
:1020C0007B6803F001031A46B968F868164B984715
:1020D0007B6803F00A03002B03D0FB68BA681A621E
:1020E00002E0FB68BA685A627B6803F00203002BC7
:1020F00004D0FB68BA68C3F8802008E07B6803F06E
:102100000803002B03D0FB68BA68C3F88420FB687F
:10211000BA685A61FB68BA681A6000BF1037BD46DA
:1021200080BD00BF2D2140003920400080B483B025
:1021300000AF786039607B683A685A6400BF0C373A
:10214000BD465DF8047B704780B483B000AF786013
:102150007B68DB6C18460C37BD465DF8047B704726
:1021600080B483B000AF78607B689B6C18460C37F6
:10217000BD465DF8047B704780B584B000AF7860E1
:1021800039607868264B9847F8607868254B9847FF
:102190000246FB681340FB60FB68002B3CD0002329
:1021A000BB6034E0204ABB681B0113441A683B68DB
:1021B0009A4226D11C4ABB681B01134404331A6897
:1021C000FB681340002B1CD0174ABB681B0113444B
:1021D0000C331B681449BA6812010A44106812498A
:1021E000BA6812010A4404321268114698470E4A2E
:1021F000BB681B01134404331B68DB43FA681340BC
:10220000FB60BB680133BB60BB68062B03D8FB686F
:10221000002BC7D100E000BF00BF1037BD4680BD16
:1022200049214000612140004866402080B500AF50
:102230000A210248024B984700BF80BD000E0E40A5
:102240007921400080B500AF0B210248024B98472E
:1022500000BF80BD00100E407921400080B500AF66
:102260000C210248024B984700BF80BD00120E406F
:102270007921400080B500AF10210248024B9847F9
:1022800000BF80BD00140E407921400080B500AF32
:1022900011210248024B984700BF80BD00160E4036
:1022A0007921400080B483B000AF78607B68013B47
:1022B000032B1AD801A252F823F000BFCD22400010
:1022C000D3224000DB224000E322400000237B6059
:1022D0000EE04FF480737B600AE04FF440737B6044
:1022E00006E04FF400737B6002E000237B6000BFD8
:1022F0000A490A4B1B6B23F440727B6813430B6340
:1023000000BF064B9B6E03F00803002BF9D000BF03
:102310000C37BD465DF8047B704700BF00060E40D9
:1023200080B485B000AF78601D491D4B1B6B23F056
:1023300070027B6813430B634FF48053FB6007E02C
:10234000FB68002B01D1012323E0FB68013BFB600C
:10235000134B9B6E03F00803002BF1D0104A104B77
:102360001B6B23F0030343F0020313634FF480530A
:10237000FB6007E0FB68002B01D1012309E0FB684B
:10238000013BFB60064B9B6E03F00803002BF1D072
:10239000002318461437BD465DF8047B704700BF24
:1023A00000060E4080B483B000AF78607B68012BDC
:1023B00005D10749064B9A68064B13438B60044BC3
:1023C000054A1A6000BF0C37BD465DF8047B7047B4
:1023D00010180E40000010A5080000A580B400AF42
:1023E000094B5B6903F08003002B07D0074B9B6E02
:1023F00003F08003002B01D0012300E000231846E6
:10240000BD465DF8047B704710180E4000060E4074
:1024100080B483B000AF78601549154B1A6A154B2C
:1024200013430B6200BF124B9B6E03F40033002B6F
:10243000F9D00F490E4B1A6A0F4B13407A681343B9
:1024400043F45C130B6200BF094B9B6E03F4003333
:10245000002BF9D00649064B1A6A084B134043F487
:102460005C130B6200BF0C37BD465DF8047B704700
:1024700000060E40080037008FFFC8FFFFFFC8FEB0
:1024800080B483B000AF786039607B68002B08D0DF
:102490001349134B1B6A134A1A40134B13430B6225
:1024A00018E00F490E4B1A6A104B13403A6812029B
:1024B00092B21A430E4B13430B6200BF084B9B6E44
:1024C00003F00103002BF9D00549054B1A6A094BAB
:1024D00013430B6200BF0C37BD465DF8047B7047A9
:1024E00000060E40FCFFC8FE02003701FCFFC8FFDB
:1024F000010037000000370180B400AF044B9B6E31
:1025000003F480331846BD465DF8047B704700BF76
:1025100000060E4080B400AF044B4FF000529A62A8
:1025200000BFBD465DF8047B704700BF00060E404B
:1025300080B400AF044B9B6E03F002031846BD4607
:102540005DF8047B704700BF00060E4080B400AF0A
:10255000044B9B6E03F040031846BD465DF8047BB8
:10256000704700BF00060E4080B483B000AF7860B3
:102570007B683F2B01D901232FE07B681F2B13D8E9
:10258000194B9A6901217B6801FA03F31A40012172
:102590007B6801FA03F39A421ED0134A01217B683B
:1025A00001FA03F3136117E07B68203B7B600E4B5D
:1025B000D3F8082101217B6801FA03F31A400121B5
:1025C0007B6801FA03F39A4206D0074A01217B682F
:1025D00001FA03F3C2F80031002318460C37BD4658
:1025E0005DF8047B704700BF00060E4080B485B0E4
:1025F00000AF786039600023FB607B68AC221A6012
:102600003B681A683B685B68B2FBF3F31B09FB602D
:10261000FB68002B03D0FB68B3F5803F01D3012397
:102620000AE07B68FA681A623B689A687B685A60BD
:102630007B6850221A60002318461437BD465DF8A7
:10264000047B704780B483B000AF78600B46FB70AA
:102650007B685B6903F00203002B01D1012303E0D7
:10266000FA787B68DA61002318460C37BD465DF8BE
:10267000047B704780B483B000AF786039607B68BA
:102680005B6903F00103002B01D1012305E07B68A6
:102690009B69DAB23B681A70002318460C37BD46B6
:1026A0005DF8047B704780B489B000AFF860B96012
:1026B0007A60BB681A017B689A4202D81023FB61DA
:1026C00001E00823FB617B68DA00FB69B96801FB64
:1026D00003F35B081A44FB69B96801FB03F3B2FB1F
:1026E000F3F3BB61BB69DB087B61BB6903F00703E4
:1026F0003B617B69002B03D07B69B3F5803F01D33D
:1027000001230FE0FB69082B05D1FB685B6843F4EC
:102710000022FB685A603B691A047B691A43FB6814
:102720001A62002318462437BD465DF8047B7047C3
:1027300080B582B000AF786078680D4B98477B68B1
:1027400000225A607B6800225A627B6800229A62EB
:102750007868084B98477868074B98477868074B24
:1027600098477868064B984700BF0837BD4680BD3C
:1027700011294000232840005728400071284000BC
:102780008D28400080B584B000AFF860B9607A60F1
:10279000F8681A4B98471A4B00221A60BB68002B46
:1027A00009D0BB681B687A681946F868154B9847CA
:1027B0000346002B01D001231BE0BB685A68BB68AD
:1027C0009B681A43BB681B691A43BB68DB681A43E2
:1027D0000B4B1B6813430A4A1360094B1B68084ADA
:1027E0001360FB685A68064B1B681A43FB685A6003
:1027F000002318461037BD4680BD00BF312740007A
:10280000B8664020A726400080B483B000AF78604F
:102810007B6840221A6000BF0C37BD465DF8047B20
:10282000704780B483B000AF78607B6888221A60FC
:1028300000BF0C37BD465DF8047B704780B483B0A1
:1028400000AF78607B6810221A6000BF0C37BD466D
:102850005DF8047B704780B483B000AF78607B681C
:1028600024221A6000BF0C37BD465DF8047B704718
:1028700080B483B000AF78607B684FF480721A60D8
:1028800000BF0C37BD465DF8047B704780B483B051
:1028900000AF78607B684FF400221A6000BF0C37ED
:1028A000BD465DF8047B704780B483B000AF7860AC
:1028B00039607B685B6903F00203002B01D10123BF
:1028C00005E03B68C3F308027B68DA610023184621
:1028D0000C37BD465DF8047B704780B483B000AF11
:1028E000786039607B685B6903F00103002B01D1DC
:1028F000012306E07B689B69C3F308023B681A600A
:10290000002318460C37BD465DF8047B7047000075
:1029100080B483B000AF78607B68044AC3F8E420D9
:1029200000BF0C37BD465DF8047B7047004153552E
:1029300080B483B000AFEFF310837B607B68002B23
:102940000CBF01230023DBB23B6072B6BFF35F8F85
:10295000044B00221A703B6818460C37BD465DF8E0
:10296000047B70471C00402080B483B000AF7860C7
:102970007B68002B14BF01230023DBB218460C3701
:10298000BD465DF8047B704780B582B000AF7860CB
:102990007868074B98470346002B05D0054B01226A
:1029A0001A70BFF35F8F62B600BF0837BD4680BDA7
:1029B000692940001C00402080B584B000AF1E4B48
:1029C000FB601E4BBB60FA68BB689A420CD007E004
:1029D000BB681A1DBA60FA68111DF96012681A60A6
:1029E000BB68174A9342F3D3164BBB6004E0BB6845
:1029F0001A1DBA6000221A60BB68134A9342F6D3CC
:102A0000124BFB60124AFB6823F07F039360114B6B
:102A100098477860104A104B1B6843F470031360AA
:102A2000BFF34F8FBFF36F8F78680C4B98470C4BF9
:102A300098470C4B9847FEE7C84A400000004020EA
:102A40006408402064084020B06740200000400037
:102A500000ED00E03129400088ED00E089294000C8
:102A6000492D4000CD0C400080B400AFFEE70000CF
:102A700080B400AF524B1B6B03F00303012B14D047
:102A8000012B02D3022B38D07AE04E4B5B6903F066
:102A90008003002B04D04C4B4FF400421A606FE0CF
:102AA000494B4FF4FA421A606AE0454B1B6A03F047
:102AB0008073002B03D0444B444A1A6060E0424BC1
:102AC000434A1A603E4B1B6A03F07003102B04D07C
:102AD000202B08D0002B0ED00EE03B4B1B685B0078
:102AE000394A136008E0384B1A6813465B001344F8
:102AF000354A136000E000BF42E0314B1B6A03F02F
:102B00008073002B03D0304B304A1A601CE02E4BF0
:102B10002F4A1A602A4B1B6A03F07003102B04D053
:102B2000202B08D0002B0ED00EE0274B1B685B003B
:102B3000254A136008E0244B1A6813465B001344CF
:102B4000214A136000E000BF1D4B1B6B03F0030321
:102B5000022B14D11A4B9B6A1B0CC3F30A030133DB
:102B6000194A126802FB03F3174A1360144B9B6A5D
:102B7000DBB2154A1268B2FBF3F3134A136000BFCD
:102B80000F4B1B6B03F07003702B08D10E4B1B68AF
:102B9000104AA2FB03235B080B4A13600AE0084BB0
:102BA0001B6B1B0903F00703074A126822FA03F3A1
:102BB000054A136000BFBD465DF8047B704700BF47
:102BC00000060E4010180E4020004020001BB700E9
:102BD00000093D00ABAAAAAA80B483B000AF786018
:102BE0007B681D4A934204D81C4B4FF080621A60E8
:102BF0002BE07B681A4A934203D8184B194A1A6093
:102C000023E07B68184A934203D8144B174A1A6092
:102C10001BE07B68164A934203D8104B154A1A6092
:102C200013E07B68144A934204D80C4B4FF0042203
:102C30001A600AE07B68114A934203D8074B104A96
:102C40001A6002E0054B0F4A1A6000BF0C37BD4600
:102C50005DF8047B704700BFBFF35E01000C0E40BF
:102C60007FE7BD02000100043FDB1C0400020004FA
:102C7000FFCE7B0500030004BFC2DA067FB6390829
:102C8000000500040006000480B485B000AF786041
:102C9000104BFB60104B1B68002B02D10E4B0F4AF0
:102CA0001A600D4B1B68BB60BA687B681A44FB68EE
:102CB0009A4202DD4FF0FF3306E0074B1A687B684B
:102CC0001344054A1360BB6818461437BD465DF8C7
:102CD000047B7047FCFF4520BC664020B089402043
:102CE00080B483B000AF78604FF0FF3318460C37E4
:102CF000BD465DF8047B704780B483B000AF786058
:102D000039603B684FF400525A60002318460C3774
:102D1000BD465DF8047B704780B483B000AF786037
:102D2000012318460C37BD465DF8047B704780B41C
:102D300085B000AFF860B9607A6000231846143798
:102D4000BD465DF8047B704770B50F4E0F4D761B86
:102D5000B61018BF002405D0013455F8043B98473D
:102D6000A642F9D10A4E0B4D761B01F09BFEB61020
:102D700018BF002406D0013455F8043B9847A642FA
:102D8000F9D170BD70BD00BFB04A4000B04A4000EC
:102D9000B84A4000B04A4000844641EA000313F0BC
:102DA00003036DD1403A41D351F8043B40F8043B52
:102DB00051F8043B40F8043B51F8043B40F8043B15
:102DC00051F8043B40F8043B51F8043B40F8043B05
:102DD00051F8043B40F8043B51F8043B40F8043BF5
:102DE00051F8043B40F8043B51F8043B40F8043BE5
:102DF00051F8043B40F8043B51F8043B40F8043BD5
:102E000051F8043B40F8043B51F8043B40F8043BC4
:102E100051F8043B40F8043B51F8043B40F8043BB4
:102E200051F8043B40F8043B403ABDD2303211D354
:102E300051F8043B40F8043B51F8043B40F8043B94
:102E400051F8043B40F8043B51F8043B40F8043B84
:102E5000103AEDD20C3205D351F8043B40F8043B54
:102E6000043AF9D2043208D0D2071CBF11F8013B52
:102E700000F8013B01D30B8803806046704700BF18
:102E8000082A13D38B078DD010F003038AD0C3F127
:102E90000403D21ADB071CBF11F8013B00F8013B09
:102EA00080D331F8023B20F8023B7BE7043AD9D3C8
:102EB000013A11F8013B00F8013BF9D20B7803709D
:102EC0004B7843708B7883706046704770B4860788
:102ED00046D0541E002A41D0CAB2034602E014F183
:102EE000FF343BD303F8012B9D07F8D1032C2ED9D7
:102EF000CDB245EA05250F2C45EA054519D903F160
:102F000010022646103E0F2E42F8105C42F80C5C70
:102F100042F8085C42F8045C02F11002F2D8A4F115
:102F2000100222F00F0204F00F041032032C13449D
:102F30000DD91E462246043A032A46F8045BFAD805
:102F4000221F22F003020432134404F003042CB1C4
:102F5000C9B21C4403F8011B9C42FBD170BC7047F2
:102F600014460346C2E700BFF0B5054689B00846DF
:102F70000C4600F025F9AB6B214F04940126441C4C
:102F800004A9022203940590AC6806970796019164
:102F9000029253B3636E13F0010FB4F90C309AB27E
:102FA00001D1900525D5910406D4626E43F40053F7
:102FB00022F40052A3816266284601AA214600F04D
:102FC000FDFB636E00280CBF0A254FF0FF35DA07C2
:102FD00002D4A3899B0502D5284609B0F0BDA06D97
:102FE00000F094FD284609B0F0BD284600F05EFAD6
:102FF000D0E7A06D00F088FDB4F90C309AB2D2E7AA
:10300000A04A4000024B01461868FFF7ADBF00BF61
:103010002400402000290CBF022200224FF48063CC
:1030200000F000B82DE9F043614C256883B00446F8
:103030000F4690461E4615B1AB6B002B64D0B8F11D
:10304000020F06D0B8F1010F00F29F80002EC0F2EF
:103050009C80636ED80734D52146284600F0CEF90F
:10306000216B41B104F14003994202D0284600F09F
:10307000BFFA00232363B4F90C300022A26162601E
:103080001A063AD423F44A6323F00303B8F1020F7B
:10309000A3811DD001AB6A462146284600F038FDC9
:1030A000A3891843A081002E32D1009E304600F043
:1030B000A7FD074600286BD0A38943F08003A381B6
:1030C00028E0A3899905C7D4A06D00F01DFDC3E7D2
:1030D0000025616E002604F1430243F00203012043
:1030E000A660CE07A38122602261606101D49805A9
:1030F0003ED5284603B0BDE8F0832169284600F09C
:1031000077FAB4F90C30BDE7284600F0CFF996E71E
:10311000002FCBD0AB6B002B33D0009BB4F90C202D
:1031200027609E421CBF42F40062A281B8F1010FE9
:1031300004BF42F00102A28192B212F0080327619B
:1031400066610ED0D1071AD5656E7642002315F060
:103150000105A661A36009D00025284603B0BDE89B
:10316000F083A360656E15F00105F5D19305C0D419
:10317000A06D00F0CBFC284603B0BDE8F083A6604C
:10318000F0E7284600F092F9C7E74FF0FF35B0E7C7
:10319000DDF80090B14504D0484600F031FD074607
:1031A00020B9B4F90C304FF0FF3592E74E4683E773
:1031B000240040200000000000000000000000008B
:1031C00090F800F06DE9024520F007016FF0000C67
:1031D00010F0070491F820F040F049804FF000040F
:1031E0006FF00700D1E9002391F840F000F10800EA
:1031F00082FA4CF2A4FA8CF283FA4CF3A2FA8CF322
:103200004BBBD1E9022382FA4CF200F10800A4FA88
:103210008CF283FA4CF3A2FA8CF3E3B9D1E90423DC
:1032200082FA4CF200F10800A4FA8CF283FA4CF313
:10323000A2FA8CF37BB9D1E9062301F1200182FACD
:103240004CF200F10800A4FA8CF283FA4CF3A2FAD3
:103250008CF3002BC6D0002A04BF04301A4612BAE1
:10326000B2FA82F2FDE8024500EBD2007047D1E9E4
:10327000002304F00305C4F100004FEAC50514F073
:10328000040F91F840F00CFA05F562EA05021CBF44
:1032900063EA050362464FF00004A9E7024B13B14D
:1032A000024800F005B87047000000001D354000DE
:1032B000002301461A46184601F090BAB1F90C30C5
:1032C0009AB22DE9F0410D46110780463AD46A685A
:1032D00043F40063002AAB816FDDAC6A002C49D057
:1032E00000229BB2D8F80060C8F8002013F4805286
:1032F00067D02A6D5F0705D569682B6B521A0BB131
:10330000EB6BD21A0023E9694046A047441C3CD02D
:10331000B5F90C302A692A6023F400630022AB81DE
:10332000DB046A6047D4296BC8F8006011B305F16B
:103330004003994202D0404600F05AF90020286329
:10334000BDE8F0812E69AEB12C682E6091070CBFEC
:103350006B690023A41BAB600AE0234632466F6A08
:10336000E9694046B8470028A4EB0004064404DDA0
:10337000002CF2DC0020BDE8F081AB8943F0400373
:10338000AB814FF0FF30BDE8F081D8F800401D2C34
:10339000F3D8194BE340DB4313F00103EDD1B5F94A
:1033A0000C206B6022F400632969AB81DA04296088
:1033B000B9D5002CB7D12865B5E7EA6B002A8CDCBB
:1033C000D8E70123E9694046A047431C024602D0E2
:1033D000AB89AC6A8EE7D8F80030002BF8D01D2BF3
:1033E00001D0162B02D1C8F80060C3E7AB8943F0C7
:1033F0004003AB81BDE8F0810100402038B50D46A7
:10340000044608B1836BBBB1B5F90C0088B16B6E93
:10341000DB0701D4810517D520462946FFF74EFF6B
:103420006B6EDA07044602D4AB899B0507D52046AC
:1034300038BD0446204638BD00F038F8E4E7A86DF2
:1034400000F064FB204638BDA86D00F05DFBE3E7AB
:10345000014900F02BBB00BFC548400010B5002358
:1034600004468181C28103604360836043660361D7
:1034700043618361194608225C30FFF727FD074846
:103480000749084A084B2062E4616162A262E36274
:1034900004F15800BDE8104000F032BB6146400026
:1034A00085464000C1464000E146400010B5044654
:1034B000124800F029FBA26BD2B904F53B73104807
:1034C000C4F8E8320321C4F8E022E063C4F8E4124F
:1034D00060680421FFF7C2FF01220921A068FFF7FD
:1034E000BDFF02221221E068FFF7B8FF0123A363AA
:1034F0000248BDE8104000F009BB00BF94674020BF
:1035000051344000014800F0FFBA00BFA8674020D6
:10351000014800F0FBBA00BFA867402038B50A4C4C
:103520000A4D641BA4100AD004F18043013B05EB53
:103530008305013C55F804399847002CF9D1BDE8C2
:10354000384001F0B9BA00BFC84A4000C44A400040
:10355000F8B5244F0C46064600F0BEFEBB685D6819
:10356000C4F57E610F3125F00305294421F47F6104
:1035700021F00F01A1F58054B4F5805F07DB002135
:10358000304601F05BF8BB682B44984204D03046CB
:1035900000F0A8FE0020F8BD6142304601F04EF870
:1035A00001300DD0104BBA6819682D1B45F001058C
:1035B0003046091B5560196000F094FE0120F8BDEB
:1035C0000021304601F03AF8BA68831A0F2BDEDD8D
:1035D000064C0549246843F00103001B5360086052
:1035E000D5E700BF54044020C06640205C0840205E
:1035F000002944D02DE9F0410D46804600F06CFED4
:1036000055F8047C694927F00103A5F10804E21884
:103610008E685068B24220F003005ED0FE07506012
:103620000BD455F8087CE41B01F1080EA56875451C
:103630003B446DD0E768EF60BD6015186D68ED071D
:103640003ED543F001026260E350B3F5007F17D22C
:10365000DB08581C9A104D6851F83070A7600123A0
:10366000934001EBC0022B43083AE2604B6041F803
:103670003040FC604046BDE8F04100F033BE70478A
:103680005A0A042A52D89A0902F13907FF0002F1B6
:103690003805C819CA59083890424FD0516821F0EE
:1036A00003018B4232D292689042F7D1C368A06086
:1036B000E3609C60C4604046BDE8F04100F012BE8B
:1036C00095683B4FBD42034440D0D068E86043F06A
:1036D000010285606260E350B7E7FF07034407D447
:1036E00055F8082CA41A1344A068E268C2609060E0
:1036F000304A126843F00100934260608C60B9D395
:103700002D4B40461968FFF723FFB3E71046CDE77E
:1037100011184968C90744D49168D268CA60034443
:1037200043F0010091606060E350A3E7142A16D8CB
:1037300002F15C07FF0002F15B05AAE7AA10012372
:103740004D6893402B434B600346B0E743F00102C2
:103750004C610C61E560A5606260E3508AE7542A21
:1037600006D81A0B02F16F07FF0002F16E0590E711
:10377000B2F5AA7F06D8DA0B02F17807FF0002F152
:10378000770586E740F25450824206D89A0C02F13F
:103790007D07FF0002F17C057BE74FF47E777E25F5
:1037A00077E743F001016160136063E75404402050
:1037B0005C04402060084020F06640209368002BA5
:1037C00073D02DE9F04F8B8983B00C461907009018
:1037D000164626D5226922B313F0020035682CD094
:1037E0004FF00009B04FC846B246B84543464A4676
:1037F00028BF3B460098B8F1000F50D0E169666AD7
:10380000B047002858DDDAF808301B1A8144A8EBCD
:103810000008CAF80830002BE7D1002003B0BDE84B
:10382000F08F2146009800F075FF002840F03381AA
:10383000A389356813F00200D2D113F0010945D1F4
:103840004F46019637B39A05D4F8088040F183803B
:103850004745C346C0F0AB8013F4906F40F0AC8096
:103860002068BA465A46494600F0D2FCA26823684E
:10387000A2EB08025B44A2602360019A9368A3EB69
:103880000A03D144A7EB0A079360002BC5D0A38994
:10389000002FD8D1D5F800906F680835D2E7D5F859
:1038A0000090D5F8048008359FE700207047214636
:1038B0000098FFF7A3FD70B3B4F90C3043F0400358
:1038C0004FF0FF30A38103B0BDE8F08F814633464F
:1038D0004E46A8469A464D464EB380B320682369AB
:1038E0006269B145CB4628BFB34698425F4604D9CA
:1038F000A36813449B4500F3A68093454BDB134616
:10390000676AE16900982A46B847071ED4DDB9EB1B
:103910000709CCD00120DAF80830DB1B3D44F61B48
:10392000CAF80830002B3FF478AF002ED5D108F14B
:10393000080313E9600098460833002EF9D0324698
:103940000A21284600F014FC002800F0A180013074
:10395000A0EB0509C2E720682369984202D8636991
:103960009F425DD2B84528BFB8464246494600F05E
:103970004FFCA3682268A3EB08034244A3602260C3
:103980000BB1C24679E721460098FFF737FD0028C2
:1039900092D1C24671E75A46294600F039FCA26826
:1039A0002368A2EB0B025B44A2602360AFE72068B0
:1039B000B846BA46BB4655E762692068216902EB02
:1039C0004208A0EB010A08EBD8780AF101004FEA9F
:1039D000680838444045424684BF804642465B05FD
:1039E00044D51146009800F013F98346002855D0BD
:1039F00052462169FFF7D0F9A38923F4906343F07D
:103A00008003A3810BEB0A00A8EB0A03C4F810B0F3
:103A1000C4F814802060A360B846BA46BB4621E7CC
:103A20006FF00041B94228BF39464A4691FBF3F195
:103A30000098666A03FB01F3E169B047B0F1000A40
:103A40003FF71BAF38E71A462946019300F0E0FB29
:103A50002268019B00981A4422602146FFF7CEFCA1
:103A6000019B00287FF428AF1F4650E7009800F024
:103A70003FFC83460028C5D1009D21692846FFF7F9
:103A8000B7FDB4F90C300C2223F080032A6015E74F
:103A900006F1010922E74FF0FF30BFE6009A0C2340
:103AA0001360B4F90C3009E700FCFF7F2DE9F843FF
:103AB00010F538771FD0884606464FF000097D681C
:103AC000BC68013D11D4A389012B05F1FF3508D94C
:103AD000B4F90E3001332146304602D0C04749EADE
:103AE00000096B1C04F16804EDD13F68002FE6D19A
:103AF0004846BDE8F883B9464846BDE8F88300BFAC
:103B0000704700BF704700BF704700BF704700BFDD
:103B100070B50C46B1F90E10002990B015461E463E
:103B200014DB01AA00F030FF00280FDB029A02F438
:103B30007042A2F50052B2FA82F252094FF4806349
:103B40004FF4006032602B6010B070BDA28900237A
:103B500012F08000336004D0402218462A6010B072
:103B600070BD4FF480632B6010B070BD8A899207DE
:103B70000B4606D501F1430201211A601A61596111
:103B80007047F0B583B001AB6A460C460646FFF7B6
:103B9000BFFF00990546304600F03AF8B4F90C3002
:103BA000D8B1019A154F0099F76343F08003A381C0
:103BB0002060206161611AB92B43A38103B0F0BD7D
:103BC0003046B4F90E1000F0F3FEA0B1A38923F043
:103BD000030343F001031BB2EEE79A05EED423F092
:103BE000030304F1430243F002030121A381226095
:103BF00022616161E2E7B4F90C30DDE75134400045
:103C0000024B0146186800F003B800BF24004020B2
:103C10002DE9F04F01F10B06162E83B0054640F258
:103C20009E8036F0070600F1BD80B14200F2BA80F6
:103C300000F052FBB6F5FC7FC0F09382730A00F0EF
:103C4000B880042B00F27981B30903F1390003F144
:103C5000380EC300BF4F3B44A3F108015C68A1428A
:103C600006D10CE0002A80F2AA80E468A14206D0C6
:103C7000636823F003039A1B0F2AF3DD70463C6947
:103C8000DFF8E4E2744500F0AB81636823F00303DE
:103C90009A1B0F2A00F39081002AC7F814E0C7F896
:103CA00010E080F29D80B3F5007F80F06181DB0839
:103CB00003F1010C99107A6857F83C80C4F8088029
:103CC00001238B4007EBCC0113430839E1607B6093
:103CD00047F83C40C8F80C408210012494409C42B4
:103CE00000F28B801C4206D120F0030064001C42CD
:103CF00000F10400FAD007EBC009CC468046DCF89E
:103D00000C309C4507D16DE1002A80F27B81DB6895
:103D10009C4500F06781596821F003018A1B0F2A36
:103D2000F2DDD3F80CC0D3F8088000939C19284624
:103D300046F0010642F001055E60C8F80CC0CCF800
:103D400008807C613C61C4F80CE0C4F808E0656060
:103D50005A5000F0C7FA009B03F108041EE0102936
:103D600020D800F0B9FA102618230220794F3B44DE
:103D7000A3F108025C68944200F03D816368E16849
:103D8000A66823F00303234428465A68F16042F0F2
:103D900001028E605A6000F0A5FA0834204603B094
:103DA000BDE8F08F00240C2320462B6003B0BDE853
:103DB000F08F40204FF400734FF03F0E4AE723444A
:103DC000E1685A68A66842F00102F16028468E60F8
:103DD0005A6000F087FA0834204603B0BDE8F08F3F
:103DE000234428465A6842F001025A6000F07AFAE9
:103DF0000834204603B0BDE8F08FBC68636823F048
:103E00000308B04504D3A8EB06030F2B00F385800D
:103E1000DFF85891504BD9F800201B680132334429
:103E200004EB080A00F0558103F580530F3323F4A7
:103E30007F6B2BF00F0B5946284600F0FFFB411C0F
:103E4000024600F0FC80824500F2F780434B19687F
:103E50005944196000F04D81D9F8000001301BBFB2
:103E6000A2EB0A0A5144C9F80020196012F00701B8
:103E700000F01581C1F10800C1F5805102440831FC
:103E800002EB0B09C9F30B09A1EB090949462846C6
:103E90000193009200F0D2FB431C9DE80C0000F05F
:103EA0004381801A484440F001001968BA604944CF
:103EB000BC425060196017D0B8F10F0F40F2FB8080
:103EC0006068A8F10C0222F0070204EB020E00F079
:103ED00001004FF0050C10430F2A6060CEF804C0BB
:103EE000CEF808C000F217811D4BBC681A689142D9
:103EF00088BF19601B4B1A689142626888BF1960BD
:103F000022F003029642A2EB060301D80F2B04DC39
:103F1000284600F0E7F9002440E7A21943F0010326
:103F200046F0010666602846BA60536000F0DAF990
:103F30000834204603B0BDE8F08F142B71D9542B00
:103F400000F2A380330B03F16F0003F16E0EC30088
:103F500080E600BF54044020F0664020C066402048
:103F6000E8664020EC6640205C0440205C0840206D
:103F70005A0A042A5BD9142A00F2AE8002F15C01CD
:103F8000C9005B3207EB010C7958ACF1080C8C4589
:103F900000F088804A6822F00302934273D2896855
:103FA0008C45F7D1DCF80C207B68E260C4F808C0CF
:103FB0009460CCF80C408FE6A11946F0010C42F059
:103FC0000106C4F804C0284679613961C1F80CE0E3
:103FD000C1F808E04E60E25000F084F90834DDE6F4
:103FE0007B6879E608F1010818F0030F0CF1080C62
:103FF0007FF485AE2DE0DC68A34208BF02303FF4B9
:104000003EAEBBE619441C464A68DB6854F8086FAC
:1040100042F001024A602846F3609E6000F062F9B7
:10402000BCE603F15C0003F15B0EC30012E69A09E3
:1040300002F13901C9003832A4E7BC4254D0BC684F
:10404000626822F003025DE759F80839994540F0AB
:10405000868010F0030F00F1FF30F5D17B6823EA72
:1040600004037B6064009C423FF6C7AE002C3FF423
:10407000C4AE1C4240467FF43EAE64001C4200F1D8
:104080000400FAD037E68C468CE7B3F5AA7F15D842
:10409000F30B03F1780003F1770EC300DAE54FF478
:1040A0008051EDE67B689210012101FA02F2134380
:1040B0007B60624679E70123536029E740F254525E
:1040C000934222D8B30C03F17D0003F17C0EC300B0
:1040D000C0E503F1100BAEE6542A29D81A0B02F101
:1040E0006F01C9006E324DE7204B196859441960C1
:1040F000B2E6CAF30B0000287FF4AEAE08EB0B0368
:10410000BA6843F001035360EEE67F204FF47E73FC
:104110004FF07E0E9EE504F1080128460093FFF75C
:1041200067FA009B1968DFE601204FF00009BCE642
:10413000B2F5AA7F05D8DA0B02F17801C90077320F
:1041400020E740F254518A4205D89A0C02F17D01D1
:10415000C9007C3216E74FF47E717E2212E77B683D
:1041600080E7F00806F1080300E600BFC0664020C3
:1041700001F0FF01102A2BDB10F0070F08D010F818
:10418000013B013A8B422DD010F0070F42B3F6D11C
:10419000F0B441EA012141EA014122F007047FF035
:1041A00000070023F0E80256083C85EA010586EA8C
:1041B000010685FA47F5A3FA87F586FA47F6A5FAC8
:1041C00087F68EB9EED1F0BC01F0FF0102F00702D4
:1041D00032B110F8013B013A83EA010313B1F8D17F
:1041E0000020704701387047002D06BF3546033860
:1041F000073815F0010F07D1013015F4807F02BF99
:10420000013015F4C03F0130F0BC0138704700BFE9
:104210008842F0B50DD98B1898420AD28418002A2A
:1042200051D0224613F8014D02F8014D9942F9D1BF
:10423000F0BD0F2A48D941EA00039B0746D100F19F
:10424000100401F11003154653F8106C44F8106C7B
:1042500053F80C6C44F80C6C53F8086C44F8086C78
:10426000103D53F8046C44F8046C0F2D03F1100357
:1042700004F11004E8D8A2F1100323F00F0302F0B8
:104280000F0E1033BEF1030F1944034421D91E1F32
:104290000D467446043C55F8047B46F8047F032C15
:1042A000F8D8AEF1040424F0030404342144234478
:1042B00002F0030262B1013B0A4411F8014B03F81A
:1042C000014F8A42F9D1F0BD0346F3E70346F2E716
:1042D000F0BD7246EEE700BF0148FFF715BC00BF16
:1042E000986740200148FFF711BC00BF9867402045
:1042F000002900F095802DE9F04F0D46164683B059
:10430000804606F10B07FFF7E7FF55F804EC162F80
:104310002EF00304A5F108093CD810221746BE422E
:104320003DD8944243DAC44B996809EB04008842B3
:1043300000F0B480436823F0010101444968C907D3
:104340004CD51EF0010F00F09B8031464046FFF730
:104350005FFC064600283AD055F8043C23F00103E0
:104360004B44A0F108029A4200F02181221F242A26
:1043700000F20781132A00F2DB8003462A46116807
:1043800019605168596092689A6029464046FFF763
:104390002FF91CE027F00707002F3A46BFDA002666
:1043A0000C233046C8F8003003B0BDE8F08F2E462D
:1043B000E31B0F2B1ED8D9F8043003F0010323436D
:1043C0004C44C9F80430636843F00103636040461D
:1043D000FFF788FF304603B0BDE8F08F23F00303FA
:1043E000E11891421FDBC36882682E46D3600C46F9
:1043F0009A60DDE7D9F8042009EB070102F0010219
:104400004C4443F001031743C9F804704B606368E0
:1044100043F00103083163604046FFF7E9F8D6E74F
:104420001146FFF7F5BB1EF0010F8ED155F8081CA1
:10443000A9EB010ADAF8041021F003010B4423442C
:10444000934225DBC26881685646CA609160DAF8FB
:104450000C1056F8080F221F242AC160886000F251
:104460009480132A6FD92968CAF808106968CAF8B5
:104470000C101B2A00F2A28008350AF1100263E03A
:1044800055F8083CA9EB030ADAF8041021F00301FF
:1044900063189342FFF659AF5646D8E7416821F0BA
:1044A000030BA34407F11000834556DA1EF0010FF9
:1044B0007FF44BAF55F8081CA9EB010ADAF8041099
:1044C00021F003018B445845E2DC5646DAF80C1023
:1044D00056F8080F221F242AC160886000F28F80DE
:1044E000132A40F28A802968CAF808106968CAF855
:1044F0000C101B2A00F28A8008350AF11002296884
:10450000116069685160A96891600AEB0701ABEB23
:10451000070242F0010299604A60DAF8043003F0C1
:1045200001031F434046CAF80470FFF7DBFE51E762
:104530002B6803606B6843601B2A2DD800F10803C9
:1045400005F108021BE7324629681160696851606D
:10455000A96891601C46D1462AE709EB0701ABEB3D
:10456000070B4BF0010299604A6055F8043C03F0D8
:1045700001031F43404645F8047CFFF7B3FE2E4677
:1045800028E72946FFF744FEFFE6294630461C4649
:10459000D146FFF73DFE0BE7AB688360EB68C36075
:1045A000242A17D000F1100305F11002E7E650F8B5
:1045B000043C23F003031C442E46F9E6A968CAF81C
:1045C0001010E968CAF81410242A0CD010350AF12A
:1045D0001802B9E72B6903616B69436105F11802A1
:1045E00000F11803CBE62A69CAF818206A69CAF8EC
:1045F0001C2018350AF12002A6E732467FE729463B
:1046000030460193FFF704FE019B7EE7A968CAF8D4
:104610001010E968CAF81410242A03D010350AF1E2
:1046200018026CE72A69CAF818206A69CAF81C20BF
:1046300018350AF1200262E75404402038B5074CCF
:104640000023054608462360FEF71EFB431C00D0EE
:1046500038BD2368002BFBD02B6038BDAC674020F1
:1046600010B50C46B1F90E1000F0CAF9002803DBB2
:10467000236D0344236510BDA38923F48053A381D4
:1046800010BD00BF2DE9F0411646B1F90C201F46C0
:10469000D3050C46054607D500220223B1F90E10BA
:1046A00000F098F9B4F90C20B4F90E1022F48052FD
:1046B000A2813B4632462846BDE8F04100F014B8DE
:1046C00010B50C46B1F90E1000F084F9A389421C14
:1046D0000EBF23F4805343F480532065A38110BDA3
:1046E000B1F90E1000F0DCB870B50D46084C11465B
:1046F00006461A46284600232360FCF7BBFD431CF0
:1047000000D070BD2368002BFBD0336070BD00BFAC
:10471000AC67402038B5304B1B6805460C4613B1DA
:104720009A6B002A38D0B4F90C2093B218070CD534
:104730002069A8B113F001021ED0636900225B4218
:10474000A361A260F0B1002038BDD9063CD558075E
:1047500026D4206942F00803A3819BB20028E9D146
:1047600003F42072B2F5007FE4D028462146FFF71B
:10477000FDF9A3892069DDE7990758BF6269A26046
:104780000028E0D1B4F90C301A06DDD543F040031F
:10479000A3814FF0FF3038BD1846FEF787FEC2E711
:1047A000216B51B104F14003994204D02846FEF731
:1047B0001FFFB4F90C2000232363002320696360EA
:1047C00022F024022060C5E742F0400209232B605A
:1047D0004FF0FF30A28138BD240040202DE9F8437E
:1047E0002C4D0646286898460F469146FFF78CF9EF
:1047F000294B1C68D4F84831002B3ED05A681F2A38
:104800001CDC02F1010E76B103EB82010124C1F838
:104810008890D3F8880194402043022EC3F8880181
:10482000C1F8088123D00232C3F804E0286843F8B5
:104830002270FFF76BF90020BDE8F883174B0BB32C
:104840004FF4C870FFF7DCF90346D8B1D4F848211B
:104850000260002141600A46C4F848014FF0010E91
:10486000C0F88811C0F88C11002EDCD0CCE7D3F84A
:104870008C110C43C3F88C41D5E704F5A673C4F83A
:104880004831BBE72868FFF741F94FF0FF30BDE83A
:10489000F88300BF500440209C4A4000013C400087
:1048A00038B5074C0023054608462360FEF718FA82
:1048B000431C00D038BD2368002BFBD02B6038BDD3
:1048C000AC67402070B559B105460C4610B1836BFA
:1048D000002B3CD0636ED80705D5B4F90C302BB94A
:1048E0000026304670BDA38999053CD5214628464F
:1048F000FEF7E4FCE36A064633B1E16928469847CF
:104900000028B8BF4FF0FF36A3891A0622D4216BC6
:1049100041B104F14003994202D02846FEF768FEF7
:1049200000232363616C21B12846FEF761FE00235A
:104930006364FEF7E7FD636E0022DB07A2810ED5FC
:10494000A06DFFF7DFF8FEF7E3FD304670BDFEF720
:10495000ADFDBFE721692846FEF74AFED7E7A06D07
:10496000FFF7D4F8ECE7A06DFFF7CEF8B4F90C3000
:10497000002BBBD1666E16F00106B1D1A06DFFF71A
:10498000C5F8304670BD00BF38B50B46074C05462C
:104990001146184600232360FEF7AEF9431C00D0F1
:1049A00038BD2368002BFBD02B6038BDAC6740209E
:1049B00038B5074C0023054608462360FEF7ACF9DE
:1049C000431C00D038BD2368002BFBD02B6038BDC2
:1049D000AC67402070B50D46084C114606461A4695
:1049E000284600232360FEF7A2F9431C00D070BDC7
:1049F0002368002BFBD0336070BD00BFAC67402044
:104A000070B50D46084C114606461A462846002346
:104A10002360FCF705FC431C00D070BD2368002B0D
:104A2000FBD0336070BD00BFAC67402000C2010006
:104A3000C000000000080000000000002D2D2041F3
:104A40004645432054656D706572617475726520CA
:104A500053656E736F72204578616D706C65202DA3
:104A60002D0D0A2D2D2053414D4537302D58504CDA
:104A700044202D2D0D0A2D2D20436F6D70696C651E
:104A8000643A204A756E203131203230313820317D
:104A9000343A34343A3438202D2D0D00280040208B
:104AA0000A000000F8B500BFF8BC08BC9E4670477D
:104AB0009D32400065014000F8B500BFF8BC08BC5D
:084AC0009E46704741014000D1
:104AC8008008402001000000E02E000000000000E7
:104AD80000000000000000000000003F010000008E
:104AE80000093D0028004020000000001403402079
:104AF8007C034020E4034020000000000000000088
:104B0800000000000000000000000000000000009D
:104B1800000000000000000000000000000000008D
:104B2800000000000000000000000000000000007D
:104B3800000000000000000000000000000000006D
:104B4800000000000000000000000000000000005D
:104B5800000000000000000000000000000000004D
:104B6800000000000000000000000000000000003D
:104B7800000000000000000000000000000000002D
:104B8800000000000000000000000000000000001D
:104B980001000000000000000E33CDAB34126DE6BA
:104BA800ECDE05000B000000000000000000000023
:104BB80000000000000000000000000000000000ED
:104BC80000000000000000000000000000000000DD
:104BD80000000000000000000000000000000000CD
:104BE80000000000000000000000000000000000BD
:104F18008867402000000000000000005404402082
:104F2800540440205C0440205C0440206404402079
:104F3800640440206C0440206C0440207404402029
:104F4800740440207C0440207C04402084044020D9
:104F5800840440208C0440208C0440209404402089
:104F6800940440209C0440209C044020A404402039
:104F7800A4044020AC044020AC044020B4044020E9
:104F8800B4044020BC044020BC044020C404402099
:104F9800C4044020CC044020CC044020D404402049
:104FA800D4044020DC044020DC044020E4044020F9
:104FB800E4044020EC044020EC044020F4044020A9
:104FC800F4044020FC044020FC0440200405402058
:104FD800040540200C0540200C0540201405402005
:104FE800140540201C0540201C05402024054020B5
:104FF800240540202C0540202C0540203405402065
:10500800340540203C0540203C0540204405402014
:10501800440540204C0540204C05402054054020C4
:10502800540540205C0540205C0540206405402074
:10503800640540206C0540206C0540207405402024
:10504800740540207C0540207C05402084054020D4
:10505800840540208C0540208C0540209405402084
:10506800940540209C0540209C054020A405402034
:10507800A4054020AC054020AC054020B4054020E4
:10508800B4054020BC054020BC054020C405402094
:10509800C4054020CC054020CC054020D405402044
:1050A800D4054020DC054020DC054020E4054020F4
:1050B800E4054020EC054020EC054020F4054020A4
:1050C800F4054020FC054020FC0540200406402053
:1050D800040640200C0640200C0640201406402000
:1050E800140640201C0640201C06402024064020B0
:1050F800240640202C0640202C0640203406402060
:10510800340640203C0640203C064020440640200F
:10511800440640204C0640204C06402054064020BF
:10512800540640205C0640205C064020640640206F
:10513800640640206C0640206C064020740640201F
:10514800740640207C0640207C06402084064020CF
:10515800840640208C0640208C064020940640207F
:10516800940640209C0640209C064020A40640202F
:10517800A4064020AC064020AC064020B4064020DF
:10518800B4064020BC064020BC064020C40640208F
:10519800C4064020CC064020CC064020D40640203F
:1051A800D4064020DC064020DC064020E4064020EF
:1051B800E4064020EC064020EC064020F40640209F
:1051C800F4064020FC064020FC064020040740204E
:1051D800040740200C0740200C07402014074020FB
:1051E800140740201C0740201C07402024074020AB
:1051F800240740202C0740202C074020340740205B
:10520800340740203C0740203C074020440740200A
:10521800440740204C0740204C07402054074020BA
:10522800540740205C0740205C074020640740206A
:10523800640740206C0740206C074020740740201A
:10524800740740207C0740207C07402084074020CA
:10525800840740208C0740208C074020940740207A
:10526800940740209C0740209C074020A40740202A
:10527800A4074020AC074020AC074020B4074020DA
:10528800B4074020BC074020BC074020C40740208A
:10529800C4074020CC074020CC074020D40740203A
:1052A800D4074020DC074020DC074020E4074020EA
:1052B800E4074020EC074020EC074020F40740209A
:1052C800F4074020FC074020FC0740200408402049
:1052D800040840200C0840200C08402014084020F6
:1052E800140840201C0840201C08402024084020A6
:1052F800240840202C0840202C0840203408402056
:10530800340840203C0840203C0840204408402005
:10531800440840204C0840204C084020FFFFFFFF75
:04532800000002007F
:04000005004029B9D5
:00000001FF
