:020000040040BA
:10000000F0244020D1044000CD044000CD04400045
:10001000CD044000CD044000CD04400000000000AD
:10002000000000000000000000000000CD044000BF
:10003000CD04400000000000CD044000CD0440008D
:10004000CD044000CD044000CD044000CD0440006C
:10005000CD044000CD044000CD044000CD0440005C
:10006000CD04400000000000F502400009034000FC
:100070001D034000CD044000CD044000CD044000ED
:100080003103400045034000CD044000CD04400052
:10009000CD044000CD044000CD044000CD0440001C
:1000A000CD044000CD044000CD044000CD0440000C
:1000B000CD044000CD044000CD044000CD044000FC
:1000C000CD044000CD044000CD044000CD044000EC
:1000D00000000000CD04400000000000CD044000FE
:1000E000CD044000CD044000CD044000CD044000CC
:1000F000CD044000CD044000CD044000CD044000BC
:10010000CD044000CD044000CD044000CD044000AB
:10011000CD044000000000000000000000000000CE
:10012000CD044000CD044000CD044000CD0440008B
:10013000CD04400000000000CD044000CD0440008C
:1001400010B5054C237833B9044B13B10448AFF311
:1001500000800123237010BD3C04402000000000FB
:10016000941040000C4B43B10C480D4910B5AFF34F
:1001700000800C48036823B910BD0A48036833B9EE
:100180007047094B002BF7D0BDE810401847064BCD
:10019000002BF5D0184700BF00000000941040006D
:1001A00040044020941040000000000010B51048AA
:1001B000104B98473E2100200F4B98470F4CA0470B
:1001C0000028FCD00E4B98470E4A0F4B9A620F4CFA
:1001D000A0470028FCD002200D4B984700200D4B73
:1001E00098470D4B98470248024B984710BD00BFF7
:1001F00000A3E111A5064000F503400049044000BA
:1002000059044000013F182000060E4069044000D8
:100210005903400091034000990540000163704775
:100220004163704721F00061B1F1405F05D1836BFC
:10023000134214BF012000207047C36BF8E74164EC
:1002400012F0010F0DD1016612F00A0F0BD00162FE
:1002500012F0020F09D112F0080F08D0C0F8841074
:1002600005E04166F0E74162F2E7C0F880104161C5
:100270000160704710B4019C41644CB901664BB1F8
:1002800001654AB94163016101605DF8044B704743
:100290004166F4E74165F4E70163F4E7C06C704739
:1002A000806C70472DE9F041044688460E4B984714
:1002B000054620460D4B9847054013D00C4C04F1E1
:1002C000600603E0B4420DD010345DB120684045B3
:1002D000F8D161682942F5D0E3689847636825EA58
:1002E0000305EFE7BDE8F0819D024000A102400058
:1002F0005804402008B50A210148024B984708BD20
:10030000000E0E40A502400008B50B210148024B2B
:10031000984708BD00100E40A502400008B50C210A
:100320000148024B984708BD00120E40A50240004C
:1003300008B510210148024B984708BD00140E4033
:10034000A502400008B511210148024B984708BD9D
:1003500000160E40A5024000032811D0042812D038
:1003600002280CBF4FF480710021084A136B23F45C
:1003700040730B431363936E13F0080FFBD0704769
:100380004FF44071F1E74FF40071EEE700060E40C4
:10039000174A136B23F0700318431063936E13F026
:1003A000080F0AD14FF4805311498A6E12F0080FDA
:1003B00003D1013BF9D1012070470D4A136B23F0A3
:1003C000030343F002031363936E13F0080F0AD183
:1003D0004FF4805306498A6E12F0080F05D1013B95
:1003E000F9D101207047002070470020704700BFFE
:1003F00000060E40A0B90E48036A090289B20D4AF0
:100400001A400D4B1343194301620246936E13F0D9
:10041000010FFBD0064A116A084B0B431362704769
:1004200003490B6A064A1A40064B13430B62704796
:1004300000060E40FCFFC8FF010037000000370136
:10044000FCFFC8FE02003701024B986E00F48030BA
:10045000704700BF00060E404FF00052014B9A62F9
:10046000704700BF00060E40024B986E00F002007D
:10047000704700BF00060E403F281ED81F280CD82A
:10048000114B9A6901238340934318D0012303FA47
:1004900000F00D4B18610020704720380A4BD3F84C
:1004A00008210123834093430BD0012303FA00F07A
:1004B000054BC3F800010020704701207047002061
:1004C00070470020704700BF00060E40FEE70000A6
:1004D00000B583B0254B264A9A4210D0254B234ABB
:1004E0009A420CD2013B9B1A23F0030304331344BA
:1004F0001F4951F8040B42F8040B9A42F9D11E4BE4
:100500001E4A9A420AD2013B9B1A23F0030304338A
:100510001344002142F8041B9342FBD1184A194BA3
:1005200023F07F039360EFF31083B3FA83F35B0947
:10053000019372B6BFF35F8F0022134B1A700199BB
:10054000124A136843F470031360BFF34F8FBFF375
:100550006F8F29B101220C4B1A70BFF35F8F62B607
:100560000B4B98470B4B9847FEE700BF000040201D
:10057000941040003C044020EC0440203C04402007
:1005800000ED00E0000040000A00402088ED00E09F
:10059000FD0E4000790E40003B4B1B6B03F0030344
:1005A000012B1DD083B1022B36D0374B1B6B03F0D0
:1005B0007003702B5FD0344B1A6B3449C2F30212B4
:1005C0000B68D3400B607047314B5B6913F0800FB1
:1005D00014BF4FF400424FF4FA422C4B1A60E4E788
:1005E000294B1B6A13F0807F03D02A4A274B1A60DD
:1005F000DBE7294A254B1A60234B1B6A03F0700383
:10060000102B05D0202BD0D1224A204B1A60CCE7EA
:10061000224A1E4B1A60C8E71B4B1B6A13F0807FEF
:1006200016D01C4A194B1A60174B1B6B03F00303BF
:10063000022BBAD1144A916A926A1448C1F30A4152
:10064000036801FB0333D2B2B3FBF2F30360ACE700
:10065000114A0E4B1A600C4B1B6A03F07003102BEF
:1006600005D0202BE0D10B4A084B1A60DCE70B4A7F
:10067000064B1A60D8E7054A13680949A1FB031322
:100680005B081360704700BF00060E400C0040205E
:1006900010180E40001BB70000093D0000127A0040
:1006A000ABAAAAAA124B984211D9124B984213D95D
:1006B000114B984214D9114B984215D9104B9842BE
:1006C00094BF4FF004220F4A0F4B1A6070474FF04F
:1006D00080620D4B1A6070470C4A0B4B1A607047D2
:1006E0000B4A094B1A6070470A4A074B1A60704759
:1006F000FF2C3101FF596202FF869303FFB3C4044C
:10070000FFE0F50500050004000C0E4000010004A8
:10071000000200040003000410B5044610F0010FAD
:100720004FF00101104814BF104B114B984714F0C3
:10073000020F4FF008010F4814BF0C4B0C4B9847A9
:1007400014F0040F4FF010010A4814BF074B084B78
:10075000984714F0080F4FF00201034814BF034BF1
:10076000034B984710BD00BF00100E401D02400013
:1007700021024000000E0E4070B505460C4C4FF4AF
:10078000001120460B4EB04728460B4B98474FF0C0
:1007900000712046094B98474CF28E50084DA847EF
:1007A0004FF000712046B0474CF28E50A84770BD04
:1007B00000140E4021024000190740001D024000B5
:1007C0000100402010B50020024CA0470120A047A6
:1007D00010BD00BF7907400038B50C4610B10128A4
:1007E00009D038BD81F080000009084DA84704F009
:1007F0000F00A84738BDA1F14000C0F30310034D1E
:10080000A84704F00F00A847EBE700BF79074000B6
:1008100038B500200F4B98470F48104DA8470320CC
:100820000F4CA0470F48A8470320A0470E48A847F1
:100830000320A0470220A0470220A0470820A0478D
:100840000020A0470C20A0470020A0470620A0477A
:1008500038BD00BF19074000086F0F00010040209D
:1008600079074000C2DB0300117D08002DE9F84341
:100870008146174C4FF400112046164EB0474FEA00
:100880001910DFF85C80C0474FF000712046B04778
:100890004CF28E50104DA8474FF0007120460F4F7C
:1008A000B8474CF28E50A84709F00F00C0474FF0F0
:1008B00000712046B0474CF28E50A8474FF00071AF
:1008C0002046B8474CF28E50A847BDE8F88300BFD9
:1008D00000140E401D024000010040202102400093
:1008E0001907400070B5904D4FF0004128468F4BDE
:1008F000984708218E488F4CA04701218E48A04779
:100900004FF080518D48A0474FF400324FF02051F6
:1009100028468B4B9847002831D1834D884C894E0F
:1009200002E03046884B98474FF400324FF0205198
:100930002846A0470028F4D08248834B98473124AA
:10094000794E4FF0004130467A4DA847082178484B
:10095000764B984701217848A8474FF08051774857
:10096000A8474FF400324FF020513046744B98475F
:10097000002840F086806C4D714C724E56E04FF06E
:1009800080424FF0205168486D4B984798B9664DAA
:100990006B4C6C4E02E030466B4B98474FF08042F8
:1009A0004FF020512846A0470028F4D06548664BF8
:1009B00098473224C4E704224FF020515C48604B32
:1009C000984790B95A4D5E4C5E4E02E030465E4B01
:1009D000984704224FF020512846A0470028F5D020
:1009E0005848594B98473324AAE74FF400224FF058
:1009F00020515148524B984788B10024A0E7304617
:100A0000514B98474FF400224FF020512846A04701
:100A10000028F4D04B484C4B9847412490E7464D72
:100A2000474C484EEEE73046474B98474FF400326C
:100A30004FF020512846A0470028F4D04148424BAF
:100A400098473424384E4FF000413046394DA8477E
:100A500008213748A84701213748344B98474FF0C1
:100A600080513648A8474FF400324FF020513046AD
:100A7000334B9847002840F096802B4D304C314E38
:100A800067E04FF080424FF0205127482C4B9847A9
:100A900098B9254D2A4C2B4E02E030462A4B9847F8
:100AA0004FF080424FF020512846A0470028F4D054
:100AB0002448254B98473524C4E704224FF02051A1
:100AC0001B481F4B984790B9194D1D4C1D4E02E015
:100AD00030461D4B984704224FF020512846A0472E
:100AE0000028F5D01748184B98473624AAE74FF44A
:100AF00000224FF020511048114B98470028A1D1F7
:100B00000D4D0F4C0F4E02E030460F4B98474FF4FF
:100B100000224FF020512846A0470028F4D0094871
:100B2000094B984742248DE700120E4021024000F5
:100B300000100E401D024000000E0E4000140E403A
:100B400025024000086F0F00010040203046704B26
:100B500098474FF400324FF020512846A047002814
:100B6000F4D06C486A4B984737246B4E4FF00041E5
:100B700030466A4DA84708216948A84701216948BD
:100B8000A8474FF080516848684B98474FF40032AF
:100B90004FF020513046664B9847002867D15E4D94
:100BA000634C5C4E55E04FF080424FF020515A4864
:100BB0005F4B984798B9584D5D4C564E02E0304611
:100BC000534B98474FF080424FF020512846A047A2
:100BD0000028F4D04F484E4B98473824C5E70422EC
:100BE0004FF020514E48524B984790B94C4D504CC5
:100BF000484E02E03046464B984704224FF02051C1
:100C00002846A0470028F5D04248414B9847392450
:100C1000ABE74FF400224FF020514248444B984735
:100C20000028A2D13F4D424C3A4E02E03046384BAC
:100C300098474FF400224FF020512846A047002843
:100C4000F4D03448324B984743248EE73046304B3B
:100C500098474FF400324FF020512846A047002813
:100C6000F4D02C482A4B98472A24204670BD4FF0D8
:100C700080424FF0205128482D4B984798B9264D77
:100C80002B4C244E02E03046214B98474FF08042D7
:100C90004FF020512846A0470028F4D01D481C4B97
:100CA00098473024E1E704224FF020511C48204BA4
:100CB000984788B91A4D1E4C164E04224FF0205109
:100CC0002846A04718B93046114B9847F5E7114818
:100CD0000F4B98472324C8E74FF400224FF02051D0
:100CE0001048134B98470028BFD10E4E104D094CA9
:100CF0004FF400224FF020513046A84718B9204643
:100D0000034B9847F4E70348014B98474424ACE76A
:100D100001004020086F0F0000120E401D0240002D
:100D200000100E40000E0E4000140E402102400044
:100D3000250240002DE9F04782B0464B98474FF41A
:100D40000042454B5A600B20444DA847DFF81C81F8
:100D5000002400942346012211464046404EB047ED
:100D60000A20A8473F4F0094234601220821384615
:100D7000B0470A20A8470094234601221021384694
:100D8000B0470B20A8470094234601220221404689
:100D9000B0471020A847DFF8D8A0009423460122CE
:100DA0004FF400115046B0471020A8470094234646
:100DB00001224FF000715046B0470C20A847DFF8E1
:100DC000B4900094234601224FF480714846B04706
:100DD0000C20A8470094234601224FF000414846CA
:100DE000B0470B20A8470094234601220821404623
:100DF000B0470A20A84700942346012211463846EE
:100E0000B0471020A8470094234601224FF080519C
:100E10005046B0470C20A84701224FF40031484605
:100E2000114CA0470C20A84701224FF080414846B2
:100E3000A0470B20A847012204214046A0470A20D2
:100E4000A84701224FF400213846A04702B0BDE870
:100E5000F08700BFAD01400050180E4079044000FB
:100E600075024000000E0E403F02400000100E4090
:100E700000140E4000120E402DE9F843174B98471E
:100E8000174B9847174CA047A0474FF00009C8469A
:100E9000154F164E164D02E04FF00009C8464FF4AC
:100EA00080713846B047A84704460028F7D05FFA5B
:100EB00088F148460F4B984720460F4B984708F15A
:100EC0000108B8F1100FEAD1B9F1000FE4D1054BD8
:100ED0009847C8464FF00109E1E700BF350D4000D3
:100EE00011084000C507400000120E401D024000DE
:100EF000E5084000D90740006D08400070B50F4E6E
:100F00000F4D761BB61018BF002405D0013455F8DC
:100F1000043B9847A642F9D10A4E0B4D761B00F0D0
:100F2000A7F8B61018BF002406D0013455F8043BCA
:100F30009847A642F9D170BD70BD00BF7C1040003B
:100F40007C104000841040007C104000024B13B124
:100F5000024800F005B87047000000006D0F400027
:100F6000002301461A46184600F01EB838B50A4C50
:100F70000A4D641BA4100AD004F18043013B05EB29
:100F80008305013C55F804399847002CF9D1BDE898
:100F9000384000F077B800BF941040009010400037
:100FA000704700BF704700BF2DE9F8432C4D06463F
:100FB000286898460F469146FFF7F2FF294B1C68B8
:100FC000D4F84831002B3ED05A681F2A1CDC02F1AD
:100FD000010E76B103EB82010124C1F88890D3F8A9
:100FE000880194402043022EC3F88801C1F808818B
:100FF00023D00232C3F804E0286843F82270FFF7D8
:10100000D1FF0020BDE8F883174B0BB34FF4C87035
:10101000AFF300800346D8B1D4F848210260002124
:1010200041600A46C4F848014FF0010EC0F888112B
:10103000C0F88C11002EDCD0CCE7D3F88C110C4317
:10104000C3F88C41D5E704F5A673C4F84831BBE773
:101050002868FFF7A7FF4FF0FF30BDE8F88300BF17
:10106000380440206C1040000000000010004020B8
:10107000F8B500BFF8BC08BC9E4670474D0F400055
:1010800065014000F8B500BFF8BC08BC9E4670473B
:0410900041014000DA
:10109400BFF35F8F0138FBD17047010000093D00A9
:1010A40000000000FC02402064034020CC034020E8
:1010B400000000000000000000000000000000002C
:1010C400000000000000000000000000000000001C
:1010D400000000000000000000000000000000000C
:1010E40000000000000000000000000000000000FC
:1010F40000000000000000000000000000000000EC
:1011040000000000000000000000000000000000DB
:1011140000000000000000000000000000000000CB
:1011240000000000000000000000000000000000BB
:1011340000000000000000000000000000000000AB
:10114400000000000000000001000000000000009A
:101154000E33CDAB34126DE6ECDE05000B0000005F
:10116400000000000000000000000000000000007B
:10117400000000000000000000000000000000006B
:10118400000000000000000000000000000000005B
:10119400000000000000000000000000000000004B
:0C14C4000000000000000000C8044020F0
:04000005004004D1E2
:00000001FF
